{
    "abi": [
        {
            "type": "constructor",
            "inputs": [
                {
                    "name": "underlying_",
                    "type": "address",
                    "internalType": "address"
                },
                {
                    "name": "name_",
                    "type": "string",
                    "internalType": "string"
                },
                {
                    "name": "symbol_",
                    "type": "string",
                    "internalType": "string"
                },
                {
                    "name": "depositFeeInBps_",
                    "type": "uint256",
                    "internalType": "uint256"
                },
                {
                    "name": "protocolFeeAddress_",
                    "type": "address",
                    "internalType": "address"
                },
                {
                    "name": "owner_",
                    "type": "address",
                    "internalType": "address"
                }
            ],
            "stateMutability": "nonpayable"
        },
        {
            "type": "function",
            "name": "allowance",
            "inputs": [
                {
                    "name": "owner",
                    "type": "address",
                    "internalType": "address"
                },
                {
                    "name": "spender",
                    "type": "address",
                    "internalType": "address"
                }
            ],
            "outputs": [
                {
                    "name": "",
                    "type": "uint256",
                    "internalType": "uint256"
                }
            ],
            "stateMutability": "view"
        },
        {
            "type": "function",
            "name": "approve",
            "inputs": [
                {
                    "name": "spender",
                    "type": "address",
                    "internalType": "address"
                },
                {
                    "name": "value",
                    "type": "uint256",
                    "internalType": "uint256"
                }
            ],
            "outputs": [
                {
                    "name": "",
                    "type": "bool",
                    "internalType": "bool"
                }
            ],
            "stateMutability": "nonpayable"
        },
        {
            "type": "function",
            "name": "asset",
            "inputs": [],
            "outputs": [
                {
                    "name": "",
                    "type": "address",
                    "internalType": "address"
                }
            ],
            "stateMutability": "view"
        },
        {
            "type": "function",
            "name": "balanceOf",
            "inputs": [
                {
                    "name": "account",
                    "type": "address",
                    "internalType": "address"
                }
            ],
            "outputs": [
                {
                    "name": "",
                    "type": "uint256",
                    "internalType": "uint256"
                }
            ],
            "stateMutability": "view"
        },
        {
            "type": "function",
            "name": "cancelOwnershipHandover",
            "inputs": [],
            "outputs": [],
            "stateMutability": "payable"
        },
        {
            "type": "function",
            "name": "completeOwnershipHandover",
            "inputs": [
                {
                    "name": "pendingOwner",
                    "type": "address",
                    "internalType": "address"
                }
            ],
            "outputs": [],
            "stateMutability": "payable"
        },
        {
            "type": "function",
            "name": "convertToAssets",
            "inputs": [
                {
                    "name": "shares",
                    "type": "uint256",
                    "internalType": "uint256"
                }
            ],
            "outputs": [
                {
                    "name": "",
                    "type": "uint256",
                    "internalType": "uint256"
                }
            ],
            "stateMutability": "view"
        },
        {
            "type": "function",
            "name": "convertToShares",
            "inputs": [
                {
                    "name": "assets",
                    "type": "uint256",
                    "internalType": "uint256"
                }
            ],
            "outputs": [
                {
                    "name": "",
                    "type": "uint256",
                    "internalType": "uint256"
                }
            ],
            "stateMutability": "view"
        },
        {
            "type": "function",
            "name": "decimals",
            "inputs": [],
            "outputs": [
                {
                    "name": "",
                    "type": "uint8",
                    "internalType": "uint8"
                }
            ],
            "stateMutability": "view"
        },
        {
            "type": "function",
            "name": "deposit",
            "inputs": [
                {
                    "name": "assets",
                    "type": "uint256",
                    "internalType": "uint256"
                },
                {
                    "name": "receiver",
                    "type": "address",
                    "internalType": "address"
                }
            ],
            "outputs": [
                {
                    "name": "",
                    "type": "uint256",
                    "internalType": "uint256"
                }
            ],
            "stateMutability": "nonpayable"
        },
        {
            "type": "function",
            "name": "depositFeeInBps",
            "inputs": [],
            "outputs": [
                {
                    "name": "",
                    "type": "uint256",
                    "internalType": "uint256"
                }
            ],
            "stateMutability": "view"
        },
        {
            "type": "function",
            "name": "maxDeposit",
            "inputs": [
                {
                    "name": "",
                    "type": "address",
                    "internalType": "address"
                }
            ],
            "outputs": [
                {
                    "name": "",
                    "type": "uint256",
                    "internalType": "uint256"
                }
            ],
            "stateMutability": "view"
        },
        {
            "type": "function",
            "name": "maxMint",
            "inputs": [
                {
                    "name": "",
                    "type": "address",
                    "internalType": "address"
                }
            ],
            "outputs": [
                {
                    "name": "",
                    "type": "uint256",
                    "internalType": "uint256"
                }
            ],
            "stateMutability": "view"
        },
        {
            "type": "function",
            "name": "maxRedeem",
            "inputs": [
                {
                    "name": "owner",
                    "type": "address",
                    "internalType": "address"
                }
            ],
            "outputs": [
                {
                    "name": "",
                    "type": "uint256",
                    "internalType": "uint256"
                }
            ],
            "stateMutability": "view"
        },
        {
            "type": "function",
            "name": "maxWithdraw",
            "inputs": [
                {
                    "name": "owner",
                    "type": "address",
                    "internalType": "address"
                }
            ],
            "outputs": [
                {
                    "name": "",
                    "type": "uint256",
                    "internalType": "uint256"
                }
            ],
            "stateMutability": "view"
        },
        {
            "type": "function",
            "name": "mint",
            "inputs": [
                {
                    "name": "shares",
                    "type": "uint256",
                    "internalType": "uint256"
                },
                {
                    "name": "receiver",
                    "type": "address",
                    "internalType": "address"
                }
            ],
            "outputs": [
                {
                    "name": "",
                    "type": "uint256",
                    "internalType": "uint256"
                }
            ],
            "stateMutability": "nonpayable"
        },
        {
            "type": "function",
            "name": "name",
            "inputs": [],
            "outputs": [
                {
                    "name": "",
                    "type": "string",
                    "internalType": "string"
                }
            ],
            "stateMutability": "view"
        },
        {
            "type": "function",
            "name": "owner",
            "inputs": [],
            "outputs": [
                {
                    "name": "result",
                    "type": "address",
                    "internalType": "address"
                }
            ],
            "stateMutability": "view"
        },
        {
            "type": "function",
            "name": "ownershipHandoverExpiresAt",
            "inputs": [
                {
                    "name": "pendingOwner",
                    "type": "address",
                    "internalType": "address"
                }
            ],
            "outputs": [
                {
                    "name": "result",
                    "type": "uint256",
                    "internalType": "uint256"
                }
            ],
            "stateMutability": "view"
        },
        {
            "type": "function",
            "name": "previewDeposit",
            "inputs": [
                {
                    "name": "assets",
                    "type": "uint256",
                    "internalType": "uint256"
                }
            ],
            "outputs": [
                {
                    "name": "",
                    "type": "uint256",
                    "internalType": "uint256"
                }
            ],
            "stateMutability": "view"
        },
        {
            "type": "function",
            "name": "previewMint",
            "inputs": [
                {
                    "name": "shares",
                    "type": "uint256",
                    "internalType": "uint256"
                }
            ],
            "outputs": [
                {
                    "name": "",
                    "type": "uint256",
                    "internalType": "uint256"
                }
            ],
            "stateMutability": "view"
        },
        {
            "type": "function",
            "name": "previewRedeem",
            "inputs": [
                {
                    "name": "shares",
                    "type": "uint256",
                    "internalType": "uint256"
                }
            ],
            "outputs": [
                {
                    "name": "",
                    "type": "uint256",
                    "internalType": "uint256"
                }
            ],
            "stateMutability": "view"
        },
        {
            "type": "function",
            "name": "previewWithdraw",
            "inputs": [
                {
                    "name": "assets",
                    "type": "uint256",
                    "internalType": "uint256"
                }
            ],
            "outputs": [
                {
                    "name": "",
                    "type": "uint256",
                    "internalType": "uint256"
                }
            ],
            "stateMutability": "view"
        },
        {
            "type": "function",
            "name": "protocolFeeAddress",
            "inputs": [],
            "outputs": [
                {
                    "name": "",
                    "type": "address",
                    "internalType": "address"
                }
            ],
            "stateMutability": "view"
        },
        {
            "type": "function",
            "name": "redeem",
            "inputs": [
                {
                    "name": "shares",
                    "type": "uint256",
                    "internalType": "uint256"
                },
                {
                    "name": "receiver",
                    "type": "address",
                    "internalType": "address"
                },
                {
                    "name": "owner",
                    "type": "address",
                    "internalType": "address"
                }
            ],
            "outputs": [
                {
                    "name": "",
                    "type": "uint256",
                    "internalType": "uint256"
                }
            ],
            "stateMutability": "nonpayable"
        },
        {
            "type": "function",
            "name": "renounceOwnership",
            "inputs": [],
            "outputs": [],
            "stateMutability": "payable"
        },
        {
            "type": "function",
            "name": "requestOwnershipHandover",
            "inputs": [],
            "outputs": [],
            "stateMutability": "payable"
        },
        {
            "type": "function",
            "name": "setDepositFeeInBps",
            "inputs": [
                {
                    "name": "fee_",
                    "type": "uint256",
                    "internalType": "uint256"
                }
            ],
            "outputs": [],
            "stateMutability": "nonpayable"
        },
        {
            "type": "function",
            "name": "setProtocolFeeAddress",
            "inputs": [
                {
                    "name": "address_",
                    "type": "address",
                    "internalType": "address"
                }
            ],
            "outputs": [],
            "stateMutability": "nonpayable"
        },
        {
            "type": "function",
            "name": "symbol",
            "inputs": [],
            "outputs": [
                {
                    "name": "",
                    "type": "string",
                    "internalType": "string"
                }
            ],
            "stateMutability": "view"
        },
        {
            "type": "function",
            "name": "totalAssets",
            "inputs": [],
            "outputs": [
                {
                    "name": "",
                    "type": "uint256",
                    "internalType": "uint256"
                }
            ],
            "stateMutability": "view"
        },
        {
            "type": "function",
            "name": "totalSupply",
            "inputs": [],
            "outputs": [
                {
                    "name": "",
                    "type": "uint256",
                    "internalType": "uint256"
                }
            ],
            "stateMutability": "view"
        },
        {
            "type": "function",
            "name": "transfer",
            "inputs": [
                {
                    "name": "to",
                    "type": "address",
                    "internalType": "address"
                },
                {
                    "name": "value",
                    "type": "uint256",
                    "internalType": "uint256"
                }
            ],
            "outputs": [
                {
                    "name": "",
                    "type": "bool",
                    "internalType": "bool"
                }
            ],
            "stateMutability": "nonpayable"
        },
        {
            "type": "function",
            "name": "transferFrom",
            "inputs": [
                {
                    "name": "from",
                    "type": "address",
                    "internalType": "address"
                },
                {
                    "name": "to",
                    "type": "address",
                    "internalType": "address"
                },
                {
                    "name": "value",
                    "type": "uint256",
                    "internalType": "uint256"
                }
            ],
            "outputs": [
                {
                    "name": "",
                    "type": "bool",
                    "internalType": "bool"
                }
            ],
            "stateMutability": "nonpayable"
        },
        {
            "type": "function",
            "name": "transferOwnership",
            "inputs": [
                {
                    "name": "newOwner",
                    "type": "address",
                    "internalType": "address"
                }
            ],
            "outputs": [],
            "stateMutability": "payable"
        },
        {
            "type": "function",
            "name": "withdraw",
            "inputs": [
                {
                    "name": "assets",
                    "type": "uint256",
                    "internalType": "uint256"
                },
                {
                    "name": "receiver",
                    "type": "address",
                    "internalType": "address"
                },
                {
                    "name": "owner",
                    "type": "address",
                    "internalType": "address"
                }
            ],
            "outputs": [
                {
                    "name": "",
                    "type": "uint256",
                    "internalType": "uint256"
                }
            ],
            "stateMutability": "nonpayable"
        },
        {
            "type": "event",
            "name": "Approval",
            "inputs": [
                {
                    "name": "owner",
                    "type": "address",
                    "indexed": true,
                    "internalType": "address"
                },
                {
                    "name": "spender",
                    "type": "address",
                    "indexed": true,
                    "internalType": "address"
                },
                {
                    "name": "value",
                    "type": "uint256",
                    "indexed": false,
                    "internalType": "uint256"
                }
            ],
            "anonymous": false
        },
        {
            "type": "event",
            "name": "Deposit",
            "inputs": [
                {
                    "name": "sender",
                    "type": "address",
                    "indexed": true,
                    "internalType": "address"
                },
                {
                    "name": "owner",
                    "type": "address",
                    "indexed": true,
                    "internalType": "address"
                },
                {
                    "name": "assets",
                    "type": "uint256",
                    "indexed": false,
                    "internalType": "uint256"
                },
                {
                    "name": "shares",
                    "type": "uint256",
                    "indexed": false,
                    "internalType": "uint256"
                }
            ],
            "anonymous": false
        },
        {
            "type": "event",
            "name": "OwnershipHandoverCanceled",
            "inputs": [
                {
                    "name": "pendingOwner",
                    "type": "address",
                    "indexed": true,
                    "internalType": "address"
                }
            ],
            "anonymous": false
        },
        {
            "type": "event",
            "name": "OwnershipHandoverRequested",
            "inputs": [
                {
                    "name": "pendingOwner",
                    "type": "address",
                    "indexed": true,
                    "internalType": "address"
                }
            ],
            "anonymous": false
        },
        {
            "type": "event",
            "name": "OwnershipTransferred",
            "inputs": [
                {
                    "name": "oldOwner",
                    "type": "address",
                    "indexed": true,
                    "internalType": "address"
                },
                {
                    "name": "newOwner",
                    "type": "address",
                    "indexed": true,
                    "internalType": "address"
                }
            ],
            "anonymous": false
        },
        {
            "type": "event",
            "name": "SetDepositFee",
            "inputs": [
                {
                    "name": "depositFee",
                    "type": "uint256",
                    "indexed": true,
                    "internalType": "uint256"
                }
            ],
            "anonymous": false
        },
        {
            "type": "event",
            "name": "SetProtocolFeeAddress",
            "inputs": [
                {
                    "name": "protocolFeeAddress",
                    "type": "address",
                    "indexed": true,
                    "internalType": "address"
                }
            ],
            "anonymous": false
        },
        {
            "type": "event",
            "name": "Transfer",
            "inputs": [
                {
                    "name": "from",
                    "type": "address",
                    "indexed": true,
                    "internalType": "address"
                },
                {
                    "name": "to",
                    "type": "address",
                    "indexed": true,
                    "internalType": "address"
                },
                {
                    "name": "value",
                    "type": "uint256",
                    "indexed": false,
                    "internalType": "uint256"
                }
            ],
            "anonymous": false
        },
        {
            "type": "event",
            "name": "Withdraw",
            "inputs": [
                {
                    "name": "sender",
                    "type": "address",
                    "indexed": true,
                    "internalType": "address"
                },
                {
                    "name": "receiver",
                    "type": "address",
                    "indexed": true,
                    "internalType": "address"
                },
                {
                    "name": "owner",
                    "type": "address",
                    "indexed": true,
                    "internalType": "address"
                },
                {
                    "name": "assets",
                    "type": "uint256",
                    "indexed": false,
                    "internalType": "uint256"
                },
                {
                    "name": "shares",
                    "type": "uint256",
                    "indexed": false,
                    "internalType": "uint256"
                }
            ],
            "anonymous": false
        },
        {
            "type": "error",
            "name": "AlreadyInitialized",
            "inputs": []
        },
        {
            "type": "error",
            "name": "ERC20InsufficientAllowance",
            "inputs": [
                {
                    "name": "spender",
                    "type": "address",
                    "internalType": "address"
                },
                {
                    "name": "allowance",
                    "type": "uint256",
                    "internalType": "uint256"
                },
                {
                    "name": "needed",
                    "type": "uint256",
                    "internalType": "uint256"
                }
            ]
        },
        {
            "type": "error",
            "name": "ERC20InsufficientBalance",
            "inputs": [
                {
                    "name": "sender",
                    "type": "address",
                    "internalType": "address"
                },
                {
                    "name": "balance",
                    "type": "uint256",
                    "internalType": "uint256"
                },
                {
                    "name": "needed",
                    "type": "uint256",
                    "internalType": "uint256"
                }
            ]
        },
        {
            "type": "error",
            "name": "ERC20InvalidApprover",
            "inputs": [
                {
                    "name": "approver",
                    "type": "address",
                    "internalType": "address"
                }
            ]
        },
        {
            "type": "error",
            "name": "ERC20InvalidReceiver",
            "inputs": [
                {
                    "name": "receiver",
                    "type": "address",
                    "internalType": "address"
                }
            ]
        },
        {
            "type": "error",
            "name": "ERC20InvalidSender",
            "inputs": [
                {
                    "name": "sender",
                    "type": "address",
                    "internalType": "address"
                }
            ]
        },
        {
            "type": "error",
            "name": "ERC20InvalidSpender",
            "inputs": [
                {
                    "name": "spender",
                    "type": "address",
                    "internalType": "address"
                }
            ]
        },
        {
            "type": "error",
            "name": "ERC4626ExceededMaxDeposit",
            "inputs": [
                {
                    "name": "receiver",
                    "type": "address",
                    "internalType": "address"
                },
                {
                    "name": "assets",
                    "type": "uint256",
                    "internalType": "uint256"
                },
                {
                    "name": "max",
                    "type": "uint256",
                    "internalType": "uint256"
                }
            ]
        },
        {
            "type": "error",
            "name": "ERC4626ExceededMaxMint",
            "inputs": [
                {
                    "name": "receiver",
                    "type": "address",
                    "internalType": "address"
                },
                {
                    "name": "shares",
                    "type": "uint256",
                    "internalType": "uint256"
                },
                {
                    "name": "max",
                    "type": "uint256",
                    "internalType": "uint256"
                }
            ]
        },
        {
            "type": "error",
            "name": "ERC4626ExceededMaxRedeem",
            "inputs": [
                {
                    "name": "owner",
                    "type": "address",
                    "internalType": "address"
                },
                {
                    "name": "shares",
                    "type": "uint256",
                    "internalType": "uint256"
                },
                {
                    "name": "max",
                    "type": "uint256",
                    "internalType": "uint256"
                }
            ]
        },
        {
            "type": "error",
            "name": "ERC4626ExceededMaxWithdraw",
            "inputs": [
                {
                    "name": "owner",
                    "type": "address",
                    "internalType": "address"
                },
                {
                    "name": "assets",
                    "type": "uint256",
                    "internalType": "uint256"
                },
                {
                    "name": "max",
                    "type": "uint256",
                    "internalType": "uint256"
                }
            ]
        },
        {
            "type": "error",
            "name": "NewOwnerIsZeroAddress",
            "inputs": []
        },
        {
            "type": "error",
            "name": "NoHandoverRequest",
            "inputs": []
        },
        {
            "type": "error",
            "name": "SafeERC20FailedOperation",
            "inputs": [
                {
                    "name": "token",
                    "type": "address",
                    "internalType": "address"
                }
            ]
        },
        {
            "type": "error",
            "name": "Staking__ProtocolFeeAddressCannotBeZero",
            "inputs": []
        },
        {
            "type": "error",
            "name": "Staking__ProtocolFeeCannotExceed500Bps",
            "inputs": []
        },
        {
            "type": "error",
            "name": "Unauthorized",
            "inputs": []
        }
    ],
    "bytecode": {
        "object": "0x60c080604052346104085761195f803803809161001c828561040c565b833981019060c081830312610408576100348161042f565b60208201519092906001600160401b038111610408578161005691840161045e565b604083015190916001600160401b0382116104085761007691840161045e565b9060608301519161009560a061008e6080870161042f565b950161042f565b825190956001600160a01b0316926001600160401b03821161030b5760035490600182811c921680156103fe575b60208310146102ed5781601f849311610390575b50602090601f831160011461032a575f9261031f575b50508160011b915f199060031b1c1916176003555b8051906001600160401b03821161030b5760045490600182811c92168015610301575b60208310146102ed5781601f84931161027f575b50602090601f8311600114610219575f9261020e575b50508160011b915f199060031b1c1916176004555b61016d816104a4565b9015610206575b60a052608052600555600680546001600160a01b0319166001600160a01b03928316179055638b78c6d8195491169081907f8be0079c531659141344cd1fd0a4f28419497f9722a3daafe3b4186f6b6457e05f80a3638b78c6d819556040516114179081610548823960805181818161080d01528181610c1b01528181610f0501526110be015260a051816108500152f35b506012610174565b015190505f8061014f565b60045f9081528281209350601f198516905b818110610267575090846001959493921061024f575b505050811b01600455610164565b01515f1960f88460031b161c191690555f8080610241565b9293602060018192878601518155019501930161022b565b60045f529091507f8a35acfbc15ff81a39ae7d344fd709f28e8600b4aa8c65c6b64bfe7fe36bd19b601f840160051c810191602085106102e3575b90601f859493920160051c01905b8181106102d55750610139565b5f81558493506001016102c8565b90915081906102ba565b634e487b7160e01b5f52602260045260245ffd5b91607f1691610125565b634e487b7160e01b5f52604160045260245ffd5b015190505f806100ed565b60035f9081528281209350601f198516905b8181106103785750908460019594939210610360575b505050811b01600355610102565b01515f1960f88460031b161c191690555f8080610352565b9293602060018192878601518155019501930161033c565b60035f529091507fc2575a0e9e593c00f959f8c92f12db2869c3395a3b0502d05e2516446f71f85b601f840160051c810191602085106103f4575b90601f859493920160051c01905b8181106103e657506100d7565b5f81558493506001016103d9565b90915081906103cb565b91607f16916100c3565b5f80fd5b601f909101601f19168101906001600160401b0382119082101761030b57604052565b51906001600160a01b038216820361040857565b6001600160401b03811161030b57601f01601f191660200190565b81601f820112156104085780519061047582610443565b92610483604051948561040c565b8284526020838301011161040857815f9260208093018386015e8301015290565b5f8091604051602081019063313ce56760e01b8252600481526104c860248261040c565b51916001600160a01b03165afa3d1561053f573d906104e682610443565b916104f4604051938461040c565b82523d5f602084013e5b80610533575b610510575b505f905f90565b602081805181010312610408576020015160ff8111610509579060ff6001921690565b50602081511015610504565b6060906104fe56fe6080806040526004361015610012575f80fd5b5f3560e01c90816301b89ebe14610afb5750806301e1d11414610ae157806306fdde0314610a2657806307a2d13a14610a08578063095ea7b3146109605780630a28a4771461093557806318160ddd1461091857806323b872dd146108e05780632569296214610897578063313ce5671461083c57806338d52e0f146107f8578063402d267d146103945780634cdad506146107d7578063515aa8b91461077957806354d1f13d146107355780636b7b9112146106be5780636e553f651461067c57806370a08231146102f3578063715018a6146106335780638da5cb5b1461060757806394bf804d146105d457806395d89b41146104d0578063a9059cbb1461049f578063b3d7f6b914610481578063b460af9414610415578063ba08765214610399578063c63d75b614610394578063c6e6f59214610376578063cce516b71461034e578063ce96cb771461032b578063d905777e146102f3578063dd62ed3e146102a3578063ef8b30f714610268578063f04e283e1461021b578063f2fde38b146101de5763fee81cf4146101a8575f80fd5b346101da5760203660031901126101da576101c1610b3f565b63389a75e1600c525f52602080600c2054604051908152f35b5f80fd5b60203660031901126101da576101f2610b3f565b6101fa610ea3565b8060601b1561020e5761020c90610fea565b005b637448fbae5f526004601cfd5b60203660031901126101da5761022f610b3f565b610237610ea3565b63389a75e1600c52805f526020600c20908154421161025b575f61020c9255610fea565b636f5e88185f526004601cfd5b346101da5760203660031901126101da57602061029b61029660043561029060055482610e8c565b90610c9d565b6111af565b604051908152f35b346101da5760403660031901126101da576102bc610b3f565b6102c4610b55565b6001600160a01b039182165f908152600160209081526040808320949093168252928352819020549051908152f35b346101da5760203660031901126101da57602061029b610311610b3f565b6001600160a01b03165f9081526020819052604090205490565b346101da5760203660031901126101da57602061029b610349610b3f565b610cfe565b346101da575f3660031901126101da576006546040516001600160a01b039091168152602090f35b346101da5760203660031901126101da57602061029b6004356111af565b610b6b565b346101da576103a736610b90565b90916103c38260018060a01b03165f525f60205260405f205490565b8082116103f45750806020936103eb6103de61029b94610d15565b6102906127105f836111f9565b93849133611027565b91632e52afbb60e21b5f5260018060a01b031660045260245260445260645ffd5b346101da5761042336610b90565b909161042e82610cfe565b80821161046057506020928161045761045261044c61029b956111dc565b83610c90565b611181565b93849233611027565b91633fa733bb60e21b5f5260018060a01b031660045260245260445260645ffd5b346101da5760203660031901126101da57602061029b600435610caa565b346101da5760403660031901126101da576104c56104bb610b3f565b6024359033610de2565b602060405160018152f35b346101da575f3660031901126101da576040515f6004548060011c906001811680156105ca575b6020831081146105b6578285529081156105925750600114610534575b6105308361052481850382610bca565b60405191829182610b15565b0390f35b60045f9081527f8a35acfbc15ff81a39ae7d344fd709f28e8600b4aa8c65c6b64bfe7fe36bd19b939250905b80821061057857509091508101602001610524610514565b919260018160209254838588010152019101909291610560565b60ff191660208086019190915291151560051b840190910191506105249050610514565b634e487b7160e01b5f52602260045260245ffd5b91607f16916104f7565b346101da5760403660031901126101da57602060043561029b6105f5610b55565b916105ff81610caa565b809333610ebf565b346101da575f3660031901126101da57638b78c6d819546040516001600160a01b039091168152602090f35b5f3660031901126101da57610646610ea3565b5f638b78c6d819547f8be0079c531659141344cd1fd0a4f28419497f9722a3daafe3b4186f6b6457e08280a35f638b78c6d81955005b346101da5760403660031901126101da57602060043561029b61069d610b55565b6106b56102966106af60055486610e8c565b85610c9d565b92839133610ebf565b346101da5760203660031901126101da576106d7610b3f565b6106df610ea3565b6001600160a01b0316801561072657600680546001600160a01b031916821790557fd2bcecf136d552f93f2af251238b9bfdcd1a4331df3ae0c3eb5852a65cf2373a5f80a2005b631f92be2360e21b5f5260045ffd5b5f3660031901126101da5763389a75e1600c52335f525f6020600c2055337ffa7b8eab7da67f412cc9575ed43464468f9bfbae89d1675917346ca6d8fe3c925f80a2005b346101da5760203660031901126101da57600435610795610ea3565b6101f481116107c857806005557f974fd3c1fcb4653dfc4fb740c4c692cd212d55c28f163f310128cb64d83006755f80a2005b6375c0716d60e11b5f5260045ffd5b346101da5760203660031901126101da57602061029b6103de600435610d15565b346101da575f3660031901126101da576040517f00000000000000000000000000000000000000000000000000000000000000006001600160a01b03168152602090f35b346101da575f3660031901126101da5760ff7f00000000000000000000000000000000000000000000000000000000000000001660ff811161088357602090604051908152f35b634e487b7160e01b5f52601160045260245ffd5b5f3660031901126101da5763389a75e1600c52335f526202a30042016020600c2055337fdbf36a107da19e49527a7176a1babf963b4b0ff8cde35ee35d6cd8f1f9ac7e1d5f80a2005b346101da5760603660031901126101da576104c56108fc610b3f565b610904610b55565b60443591610913833383610d42565b610de2565b346101da575f3660031901126101da576020600254604051908152f35b346101da5760203660031901126101da57602061029b61045260043561095a816111dc565b90610c90565b346101da5760403660031901126101da57610979610b3f565b6024359033156109f5576001600160a01b03169081156109e257335f52600160205260405f20825f526020528060405f20556040519081527f8c5be1e5ebec7d5bd14f71427d1e84f3dd0314c0f7b2291e5b200ac8c7c3b92560203392a3602060405160018152f35b634a1406b160e11b5f525f60045260245ffd5b63e602df0560e01b5f525f60045260245ffd5b346101da5760203660031901126101da57602061029b600435610d15565b346101da575f3660031901126101da576040515f6003548060011c90600181168015610ad7575b6020831081146105b6578285529081156105925750600114610a79576105308361052481850382610bca565b60035f9081527fc2575a0e9e593c00f959f8c92f12db2869c3395a3b0502d05e2516446f71f85b939250905b808210610abd57509091508101602001610524610514565b919260018160209254838588010152019101909291610aa5565b91607f1691610a4d565b346101da575f3660031901126101da57602061029b610c00565b346101da575f3660031901126101da576020906005548152f35b602060409281835280519182918282860152018484015e5f828201840152601f01601f1916010190565b600435906001600160a01b03821682036101da57565b602435906001600160a01b03821682036101da57565b346101da5760203660031901126101da57610b84610b3f565b5060206040515f198152f35b60609060031901126101da57600435906024356001600160a01b03811681036101da57906044356001600160a01b03811681036101da5790565b90601f8019910116810190811067ffffffffffffffff821117610bec57604052565b634e487b7160e01b5f52604160045260245ffd5b6040516370a0823160e01b81523060048201526020816024817f00000000000000000000000000000000000000000000000000000000000000006001600160a01b03165afa908115610c85575f91610c56575090565b90506020813d602011610c7d575b81610c7160209383610bca565b810103126101da575190565b3d9150610c64565b6040513d5f823e3d90fd5b9190820180921161088357565b9190820391821161088357565b610cb2610c00565b6001810180911161088357600254916001830180931161088357610cfb92610cdc9260019261122d565b61095a600554612710610cf08183866112cb565b918409151590610c90565b90565b60018060a01b03165f525f602052610cfb60405f20545b610d1d610c00565b9060018201809211610883576002546001810180911161088357610cfb925f9261122d565b6001600160a01b039081165f8181526001602081815260408084209587168452949052929020549392918401610d79575b50505050565b828410610dbf5780156109f5576001600160a01b038216156109e2575f52600160205260405f209060018060a01b03165f5260205260405f20910390555f808080610d73565b508290637dc7a0d960e11b5f5260018060a01b031660045260245260445260645ffd5b6001600160a01b0316908115610e79576001600160a01b0316918215610e6657815f525f60205260405f2054818110610e4d57815f805160206113c283398151915292602092855f525f84520360405f2055845f525f825260405f20818154019055604051908152a3565b8263391434e360e21b5f5260045260245260445260645ffd5b63ec442f0560e01b5f525f60045260245ffd5b634b637e8f60e11b5f525f60045260245ffd5b9061271081019081811161088357610cfb926111f9565b638b78c6d819543303610eb257565b6382b429005f526004601cfd5b919092610ece60055483610e8c565b6006546040516323b872dd60e01b60208201526001600160a01b0395861660248201819052306044830152606480830187905282527f000000000000000000000000000000000000000000000000000000000000000097939690921694919290610f4390610f3d608482610bca565b88611369565b6001600160a01b0316928315610e66577fdcbc1c05240f31ff3ad067ef1ee35ce4997762752e3a095284754544f4c709d79181610f84604093600254610c90565b600255855f525f602052825f20818154019055855f5f805160206113c283398151915260208651858152a382519182526020820152a381151580610fe0575b610fcc57505050565b610fde926001600160a01b031661128b565b565b5030811415610fc3565b60018060a01b031680638b78c6d819547f8be0079c531659141344cd1fd0a4f28419497f9722a3daafe3b4186f6b6457e05f80a3638b78c6d81955565b929092611033826111dc565b936001600160a01b0384811694908316928790868503611170575b5050508315610e7957835f525f60205260405f2054868110611155577ffbde797d201c681b91056529119e0b02407c7bb96a4a2c75c01fc9667232c8db9187604092875f525f60205203825f205587600254036002555f865f805160206113c2833981519152602085518c8152a37f0000000000000000000000000000000000000000000000000000000000000000976110e986838b61128b565b825195865260208601526001600160a01b031693a48015158061114c575b61110f575050565b610fde916040519163a9059cbb60e01b60208401525f602484015260448301526044825261113e606483610bca565b6001600160a01b0316611369565b50301515611107565b86908563391434e360e21b5f5260045260245260445260645ffd5b61117992610d42565b5f868161104e565b600254906001820180921161088357611198610c00565b6001810180911161088357610cfb9260019261122d565b6002549060018201809211610883576111c6610c00565b6001810180911161088357610cfb925f9261122d565b610cfb906127105f6111ef8282856112cb565b9209151590610c90565b916112058183856112cb565b91811561121957610cfb9309151590610c90565b634e487b7160e01b5f52601260045260245ffd5b929161123a8183866112cb565b926004811015611277576001809116149182611260575b5050610cfb9250151590610c90565b908092501561121957610cfb930915155f80611251565b634e487b7160e01b5f52602160045260245ffd5b60405163a9059cbb60e01b60208201526001600160a01b039092166024830152604480830193909352918152610fde916112c6606483610bca565b611369565b91818302915f198185099383808610950394808603951461135b57848311156113435790829109815f0382168092046002816003021880820260020302808202600203028082026002030280820260020302808202600203028091026002030293600183805f03040190848311900302920304170290565b82634e487b715f52156003026011186020526024601cfd5b505080925015611219570490565b905f602091828151910182855af115610c85575f513d6113b857506001600160a01b0381163b155b6113985750565b635274afe760e01b5f9081526001600160a01b0391909116600452602490fd5b6001141561139156feddf252ad1be2c89b69c2b068fc378daa952ba7f163c4a11628f55a4df523b3efa264697066735822122076fd4eaa6c408b13e5b87be33956213ffc5b265355a06afe094099b4545bbb3464736f6c634300081a0033",
        "linkReferences": {}
    },
    "methodIdentifiers": {
        "allowance(address,address)": "dd62ed3e",
        "approve(address,uint256)": "095ea7b3",
        "asset()": "38d52e0f",
        "balanceOf(address)": "70a08231",
        "cancelOwnershipHandover()": "54d1f13d",
        "completeOwnershipHandover(address)": "f04e283e",
        "convertToAssets(uint256)": "07a2d13a",
        "convertToShares(uint256)": "c6e6f592",
        "decimals()": "313ce567",
        "deposit(uint256,address)": "6e553f65",
        "depositFeeInBps()": "01b89ebe",
        "maxDeposit(address)": "402d267d",
        "maxMint(address)": "c63d75b6",
        "maxRedeem(address)": "d905777e",
        "maxWithdraw(address)": "ce96cb77",
        "mint(uint256,address)": "94bf804d",
        "name()": "06fdde03",
        "owner()": "8da5cb5b",
        "ownershipHandoverExpiresAt(address)": "fee81cf4",
        "previewDeposit(uint256)": "ef8b30f7",
        "previewMint(uint256)": "b3d7f6b9",
        "previewRedeem(uint256)": "4cdad506",
        "previewWithdraw(uint256)": "0a28a477",
        "protocolFeeAddress()": "cce516b7",
        "redeem(uint256,address,address)": "ba087652",
        "renounceOwnership()": "715018a6",
        "requestOwnershipHandover()": "25692962",
        "setDepositFeeInBps(uint256)": "515aa8b9",
        "setProtocolFeeAddress(address)": "6b7b9112",
        "symbol()": "95d89b41",
        "totalAssets()": "01e1d114",
        "totalSupply()": "18160ddd",
        "transfer(address,uint256)": "a9059cbb",
        "transferFrom(address,address,uint256)": "23b872dd",
        "transferOwnership(address)": "f2fde38b",
        "withdraw(uint256,address,address)": "b460af94"
    },
    "id": 57
}