{
    "abi": [
        {
            "type": "constructor",
            "inputs": [
                {
                    "name": "tokenAddress_",
                    "type": "address",
                    "internalType": "address"
                },
                {
                    "name": "amplification_",
                    "type": "uint256",
                    "internalType": "uint256"
                },
                {
                    "name": "tokens_",
                    "type": "address[]",
                    "internalType": "address[]"
                },
                {
                    "name": "rateProviders_",
                    "type": "address[]",
                    "internalType": "address[]"
                },
                {
                    "name": "weights_",
                    "type": "uint256[]",
                    "internalType": "uint256[]"
                },
                {
                    "name": "owner_",
                    "type": "address",
                    "internalType": "address"
                }
            ],
            "stateMutability": "nonpayable"
        },
        {
            "type": "function",
            "name": "addLiquidity",
            "inputs": [
                {
                    "name": "amounts_",
                    "type": "uint256[]",
                    "internalType": "uint256[]"
                },
                {
                    "name": "minLpAmount_",
                    "type": "uint256",
                    "internalType": "uint256"
                },
                {
                    "name": "receiver_",
                    "type": "address",
                    "internalType": "address"
                }
            ],
            "outputs": [
                {
                    "name": "",
                    "type": "uint256",
                    "internalType": "uint256"
                }
            ],
            "stateMutability": "nonpayable"
        },
        {
            "type": "function",
            "name": "addToken",
            "inputs": [
                {
                    "name": "token_",
                    "type": "address",
                    "internalType": "address"
                },
                {
                    "name": "rateProvider_",
                    "type": "address",
                    "internalType": "address"
                },
                {
                    "name": "weight_",
                    "type": "uint256",
                    "internalType": "uint256"
                },
                {
                    "name": "lower_",
                    "type": "uint256",
                    "internalType": "uint256"
                },
                {
                    "name": "upper_",
                    "type": "uint256",
                    "internalType": "uint256"
                },
                {
                    "name": "amount_",
                    "type": "uint256",
                    "internalType": "uint256"
                },
                {
                    "name": "amplification_",
                    "type": "uint256",
                    "internalType": "uint256"
                },
                {
                    "name": "minLpAmount_",
                    "type": "uint256",
                    "internalType": "uint256"
                },
                {
                    "name": "receiver_",
                    "type": "address",
                    "internalType": "address"
                }
            ],
            "outputs": [],
            "stateMutability": "nonpayable"
        },
        {
            "type": "function",
            "name": "amplification",
            "inputs": [],
            "outputs": [
                {
                    "name": "",
                    "type": "uint256",
                    "internalType": "uint256"
                }
            ],
            "stateMutability": "view"
        },
        {
            "type": "function",
            "name": "cancelOwnershipHandover",
            "inputs": [],
            "outputs": [],
            "stateMutability": "payable"
        },
        {
            "type": "function",
            "name": "completeOwnershipHandover",
            "inputs": [
                {
                    "name": "pendingOwner",
                    "type": "address",
                    "internalType": "address"
                }
            ],
            "outputs": [],
            "stateMutability": "payable"
        },
        {
            "type": "function",
            "name": "kill",
            "inputs": [],
            "outputs": [],
            "stateMutability": "nonpayable"
        },
        {
            "type": "function",
            "name": "killed",
            "inputs": [],
            "outputs": [
                {
                    "name": "",
                    "type": "bool",
                    "internalType": "bool"
                }
            ],
            "stateMutability": "view"
        },
        {
            "type": "function",
            "name": "numTokens",
            "inputs": [],
            "outputs": [
                {
                    "name": "",
                    "type": "uint256",
                    "internalType": "uint256"
                }
            ],
            "stateMutability": "view"
        },
        {
            "type": "function",
            "name": "owner",
            "inputs": [],
            "outputs": [
                {
                    "name": "result",
                    "type": "address",
                    "internalType": "address"
                }
            ],
            "stateMutability": "view"
        },
        {
            "type": "function",
            "name": "ownershipHandoverExpiresAt",
            "inputs": [
                {
                    "name": "pendingOwner",
                    "type": "address",
                    "internalType": "address"
                }
            ],
            "outputs": [
                {
                    "name": "result",
                    "type": "uint256",
                    "internalType": "uint256"
                }
            ],
            "stateMutability": "view"
        },
        {
            "type": "function",
            "name": "packedVirtualBalances",
            "inputs": [
                {
                    "name": "",
                    "type": "uint256",
                    "internalType": "uint256"
                }
            ],
            "outputs": [
                {
                    "name": "",
                    "type": "uint256",
                    "internalType": "uint256"
                }
            ],
            "stateMutability": "view"
        },
        {
            "type": "function",
            "name": "packedWeight",
            "inputs": [
                {
                    "name": "token_",
                    "type": "uint256",
                    "internalType": "uint256"
                }
            ],
            "outputs": [
                {
                    "name": "",
                    "type": "uint256",
                    "internalType": "uint256"
                }
            ],
            "stateMutability": "view"
        },
        {
            "type": "function",
            "name": "pause",
            "inputs": [],
            "outputs": [],
            "stateMutability": "nonpayable"
        },
        {
            "type": "function",
            "name": "paused",
            "inputs": [],
            "outputs": [
                {
                    "name": "",
                    "type": "bool",
                    "internalType": "bool"
                }
            ],
            "stateMutability": "view"
        },
        {
            "type": "function",
            "name": "rampLastTime",
            "inputs": [],
            "outputs": [
                {
                    "name": "",
                    "type": "uint256",
                    "internalType": "uint256"
                }
            ],
            "stateMutability": "view"
        },
        {
            "type": "function",
            "name": "rampStep",
            "inputs": [],
            "outputs": [
                {
                    "name": "",
                    "type": "uint256",
                    "internalType": "uint256"
                }
            ],
            "stateMutability": "view"
        },
        {
            "type": "function",
            "name": "rampStopTime",
            "inputs": [],
            "outputs": [
                {
                    "name": "",
                    "type": "uint256",
                    "internalType": "uint256"
                }
            ],
            "stateMutability": "view"
        },
        {
            "type": "function",
            "name": "rate",
            "inputs": [
                {
                    "name": "token_",
                    "type": "uint256",
                    "internalType": "uint256"
                }
            ],
            "outputs": [
                {
                    "name": "",
                    "type": "uint256",
                    "internalType": "uint256"
                }
            ],
            "stateMutability": "view"
        },
        {
            "type": "function",
            "name": "rateProviders",
            "inputs": [
                {
                    "name": "",
                    "type": "uint256",
                    "internalType": "uint256"
                }
            ],
            "outputs": [
                {
                    "name": "",
                    "type": "address",
                    "internalType": "address"
                }
            ],
            "stateMutability": "view"
        },
        {
            "type": "function",
            "name": "removeLiquidity",
            "inputs": [
                {
                    "name": "lpAmount_",
                    "type": "uint256",
                    "internalType": "uint256"
                },
                {
                    "name": "minAmounts_",
                    "type": "uint256[]",
                    "internalType": "uint256[]"
                },
                {
                    "name": "receiver_",
                    "type": "address",
                    "internalType": "address"
                }
            ],
            "outputs": [],
            "stateMutability": "nonpayable"
        },
        {
            "type": "function",
            "name": "removeLiquiditySingle",
            "inputs": [
                {
                    "name": "token_",
                    "type": "uint256",
                    "internalType": "uint256"
                },
                {
                    "name": "lpAmount_",
                    "type": "uint256",
                    "internalType": "uint256"
                },
                {
                    "name": "minTokenOutAmount_",
                    "type": "uint256",
                    "internalType": "uint256"
                },
                {
                    "name": "receiver_",
                    "type": "address",
                    "internalType": "address"
                }
            ],
            "outputs": [
                {
                    "name": "",
                    "type": "uint256",
                    "internalType": "uint256"
                }
            ],
            "stateMutability": "nonpayable"
        },
        {
            "type": "function",
            "name": "renounceOwnership",
            "inputs": [],
            "outputs": [],
            "stateMutability": "payable"
        },
        {
            "type": "function",
            "name": "requestOwnershipHandover",
            "inputs": [],
            "outputs": [],
            "stateMutability": "payable"
        },
        {
            "type": "function",
            "name": "rescue",
            "inputs": [
                {
                    "name": "token_",
                    "type": "address",
                    "internalType": "address"
                },
                {
                    "name": "receiver_",
                    "type": "address",
                    "internalType": "address"
                }
            ],
            "outputs": [],
            "stateMutability": "nonpayable"
        },
        {
            "type": "function",
            "name": "setRamp",
            "inputs": [
                {
                    "name": "amplification_",
                    "type": "uint256",
                    "internalType": "uint256"
                },
                {
                    "name": "weights_",
                    "type": "uint256[]",
                    "internalType": "uint256[]"
                },
                {
                    "name": "duration_",
                    "type": "uint256",
                    "internalType": "uint256"
                },
                {
                    "name": "start_",
                    "type": "uint256",
                    "internalType": "uint256"
                }
            ],
            "outputs": [],
            "stateMutability": "nonpayable"
        },
        {
            "type": "function",
            "name": "setRampStep",
            "inputs": [
                {
                    "name": "rampStep_",
                    "type": "uint256",
                    "internalType": "uint256"
                }
            ],
            "outputs": [],
            "stateMutability": "nonpayable"
        },
        {
            "type": "function",
            "name": "setRateProvider",
            "inputs": [
                {
                    "name": "token_",
                    "type": "uint256",
                    "internalType": "uint256"
                },
                {
                    "name": "rateProvider_",
                    "type": "address",
                    "internalType": "address"
                }
            ],
            "outputs": [],
            "stateMutability": "nonpayable"
        },
        {
            "type": "function",
            "name": "setStaking",
            "inputs": [
                {
                    "name": "stakingAddress_",
                    "type": "address",
                    "internalType": "address"
                }
            ],
            "outputs": [],
            "stateMutability": "nonpayable"
        },
        {
            "type": "function",
            "name": "setSwapFeeRate",
            "inputs": [
                {
                    "name": "feeRate_",
                    "type": "uint256",
                    "internalType": "uint256"
                }
            ],
            "outputs": [],
            "stateMutability": "nonpayable"
        },
        {
            "type": "function",
            "name": "setWeightBands",
            "inputs": [
                {
                    "name": "tokens_",
                    "type": "uint256[]",
                    "internalType": "uint256[]"
                },
                {
                    "name": "lower_",
                    "type": "uint256[]",
                    "internalType": "uint256[]"
                },
                {
                    "name": "upper_",
                    "type": "uint256[]",
                    "internalType": "uint256[]"
                }
            ],
            "outputs": [],
            "stateMutability": "nonpayable"
        },
        {
            "type": "function",
            "name": "skim",
            "inputs": [
                {
                    "name": "token_",
                    "type": "uint256",
                    "internalType": "uint256"
                },
                {
                    "name": "receiver_",
                    "type": "address",
                    "internalType": "address"
                }
            ],
            "outputs": [],
            "stateMutability": "nonpayable"
        },
        {
            "type": "function",
            "name": "stakingAddress",
            "inputs": [],
            "outputs": [
                {
                    "name": "",
                    "type": "address",
                    "internalType": "address"
                }
            ],
            "stateMutability": "view"
        },
        {
            "type": "function",
            "name": "stopRamp",
            "inputs": [],
            "outputs": [],
            "stateMutability": "nonpayable"
        },
        {
            "type": "function",
            "name": "supply",
            "inputs": [],
            "outputs": [
                {
                    "name": "",
                    "type": "uint256",
                    "internalType": "uint256"
                }
            ],
            "stateMutability": "view"
        },
        {
            "type": "function",
            "name": "swap",
            "inputs": [
                {
                    "name": "tokenIn_",
                    "type": "uint256",
                    "internalType": "uint256"
                },
                {
                    "name": "tokenOut_",
                    "type": "uint256",
                    "internalType": "uint256"
                },
                {
                    "name": "tokenInAmount_",
                    "type": "uint256",
                    "internalType": "uint256"
                },
                {
                    "name": "minTokenOutAmount_",
                    "type": "uint256",
                    "internalType": "uint256"
                },
                {
                    "name": "receiver_",
                    "type": "address",
                    "internalType": "address"
                }
            ],
            "outputs": [
                {
                    "name": "",
                    "type": "uint256",
                    "internalType": "uint256"
                }
            ],
            "stateMutability": "nonpayable"
        },
        {
            "type": "function",
            "name": "swapFeeRate",
            "inputs": [],
            "outputs": [
                {
                    "name": "",
                    "type": "uint256",
                    "internalType": "uint256"
                }
            ],
            "stateMutability": "view"
        },
        {
            "type": "function",
            "name": "targetAmplification",
            "inputs": [],
            "outputs": [
                {
                    "name": "",
                    "type": "uint256",
                    "internalType": "uint256"
                }
            ],
            "stateMutability": "view"
        },
        {
            "type": "function",
            "name": "tokenAddress",
            "inputs": [],
            "outputs": [
                {
                    "name": "",
                    "type": "address",
                    "internalType": "address"
                }
            ],
            "stateMutability": "view"
        },
        {
            "type": "function",
            "name": "tokens",
            "inputs": [
                {
                    "name": "",
                    "type": "uint256",
                    "internalType": "uint256"
                }
            ],
            "outputs": [
                {
                    "name": "",
                    "type": "address",
                    "internalType": "address"
                }
            ],
            "stateMutability": "view"
        },
        {
            "type": "function",
            "name": "transferOwnership",
            "inputs": [
                {
                    "name": "newOwner",
                    "type": "address",
                    "internalType": "address"
                }
            ],
            "outputs": [],
            "stateMutability": "payable"
        },
        {
            "type": "function",
            "name": "unpause",
            "inputs": [],
            "outputs": [],
            "stateMutability": "nonpayable"
        },
        {
            "type": "function",
            "name": "updateRates",
            "inputs": [
                {
                    "name": "tokens_",
                    "type": "uint256[]",
                    "internalType": "uint256[]"
                }
            ],
            "outputs": [],
            "stateMutability": "nonpayable"
        },
        {
            "type": "function",
            "name": "updateWeights",
            "inputs": [],
            "outputs": [
                {
                    "name": "",
                    "type": "bool",
                    "internalType": "bool"
                }
            ],
            "stateMutability": "nonpayable"
        },
        {
            "type": "function",
            "name": "virtualBalance",
            "inputs": [
                {
                    "name": "token_",
                    "type": "uint256",
                    "internalType": "uint256"
                }
            ],
            "outputs": [
                {
                    "name": "",
                    "type": "uint256",
                    "internalType": "uint256"
                }
            ],
            "stateMutability": "view"
        },
        {
            "type": "function",
            "name": "virtualBalanceProdSum",
            "inputs": [],
            "outputs": [
                {
                    "name": "",
                    "type": "uint256",
                    "internalType": "uint256"
                },
                {
                    "name": "",
                    "type": "uint256",
                    "internalType": "uint256"
                }
            ],
            "stateMutability": "view"
        },
        {
            "type": "function",
            "name": "weight",
            "inputs": [
                {
                    "name": "token_",
                    "type": "uint256",
                    "internalType": "uint256"
                }
            ],
            "outputs": [
                {
                    "name": "",
                    "type": "uint256",
                    "internalType": "uint256"
                },
                {
                    "name": "",
                    "type": "uint256",
                    "internalType": "uint256"
                },
                {
                    "name": "",
                    "type": "uint256",
                    "internalType": "uint256"
                },
                {
                    "name": "",
                    "type": "uint256",
                    "internalType": "uint256"
                }
            ],
            "stateMutability": "view"
        },
        {
            "type": "event",
            "name": "AddLiquidity",
            "inputs": [
                {
                    "name": "caller",
                    "type": "address",
                    "indexed": true,
                    "internalType": "address"
                },
                {
                    "name": "receiver",
                    "type": "address",
                    "indexed": false,
                    "internalType": "address"
                },
                {
                    "name": "amountsIn",
                    "type": "uint256[]",
                    "indexed": false,
                    "internalType": "uint256[]"
                },
                {
                    "name": "lpAmount",
                    "type": "uint256",
                    "indexed": false,
                    "internalType": "uint256"
                }
            ],
            "anonymous": false
        },
        {
            "type": "event",
            "name": "AddToken",
            "inputs": [
                {
                    "name": "index",
                    "type": "uint256",
                    "indexed": false,
                    "internalType": "uint256"
                },
                {
                    "name": "token",
                    "type": "address",
                    "indexed": false,
                    "internalType": "address"
                },
                {
                    "name": "rateProvider",
                    "type": "address",
                    "indexed": false,
                    "internalType": "address"
                },
                {
                    "name": "rate",
                    "type": "uint256",
                    "indexed": false,
                    "internalType": "uint256"
                },
                {
                    "name": "weight",
                    "type": "uint256",
                    "indexed": false,
                    "internalType": "uint256"
                },
                {
                    "name": "amount",
                    "type": "uint256",
                    "indexed": false,
                    "internalType": "uint256"
                }
            ],
            "anonymous": false
        },
        {
            "type": "event",
            "name": "Kill",
            "inputs": [],
            "anonymous": false
        },
        {
            "type": "event",
            "name": "OwnershipHandoverCanceled",
            "inputs": [
                {
                    "name": "pendingOwner",
                    "type": "address",
                    "indexed": true,
                    "internalType": "address"
                }
            ],
            "anonymous": false
        },
        {
            "type": "event",
            "name": "OwnershipHandoverRequested",
            "inputs": [
                {
                    "name": "pendingOwner",
                    "type": "address",
                    "indexed": true,
                    "internalType": "address"
                }
            ],
            "anonymous": false
        },
        {
            "type": "event",
            "name": "OwnershipTransferred",
            "inputs": [
                {
                    "name": "oldOwner",
                    "type": "address",
                    "indexed": true,
                    "internalType": "address"
                },
                {
                    "name": "newOwner",
                    "type": "address",
                    "indexed": true,
                    "internalType": "address"
                }
            ],
            "anonymous": false
        },
        {
            "type": "event",
            "name": "Pause",
            "inputs": [
                {
                    "name": "caller",
                    "type": "address",
                    "indexed": true,
                    "internalType": "address"
                }
            ],
            "anonymous": false
        },
        {
            "type": "event",
            "name": "RateUpdate",
            "inputs": [
                {
                    "name": "token",
                    "type": "uint256",
                    "indexed": true,
                    "internalType": "uint256"
                },
                {
                    "name": "rate",
                    "type": "uint256",
                    "indexed": false,
                    "internalType": "uint256"
                }
            ],
            "anonymous": false
        },
        {
            "type": "event",
            "name": "RemoveLiquidity",
            "inputs": [
                {
                    "name": "caller",
                    "type": "address",
                    "indexed": true,
                    "internalType": "address"
                },
                {
                    "name": "receiver",
                    "type": "address",
                    "indexed": false,
                    "internalType": "address"
                },
                {
                    "name": "lpAmount",
                    "type": "uint256",
                    "indexed": false,
                    "internalType": "uint256"
                }
            ],
            "anonymous": false
        },
        {
            "type": "event",
            "name": "RemoveLiquiditySingle",
            "inputs": [
                {
                    "name": "caller",
                    "type": "address",
                    "indexed": true,
                    "internalType": "address"
                },
                {
                    "name": "receiver",
                    "type": "address",
                    "indexed": false,
                    "internalType": "address"
                },
                {
                    "name": "token",
                    "type": "uint256",
                    "indexed": false,
                    "internalType": "uint256"
                },
                {
                    "name": "amountOut",
                    "type": "uint256",
                    "indexed": false,
                    "internalType": "uint256"
                },
                {
                    "name": "lpAmount",
                    "type": "uint256",
                    "indexed": false,
                    "internalType": "uint256"
                }
            ],
            "anonymous": false
        },
        {
            "type": "event",
            "name": "SetGuardian",
            "inputs": [
                {
                    "name": "caller",
                    "type": "address",
                    "indexed": true,
                    "internalType": "address"
                },
                {
                    "name": "guardian",
                    "type": "address",
                    "indexed": false,
                    "internalType": "address"
                }
            ],
            "anonymous": false
        },
        {
            "type": "event",
            "name": "SetRamp",
            "inputs": [
                {
                    "name": "amplification",
                    "type": "uint256",
                    "indexed": false,
                    "internalType": "uint256"
                },
                {
                    "name": "weights",
                    "type": "uint256[]",
                    "indexed": false,
                    "internalType": "uint256[]"
                },
                {
                    "name": "duration",
                    "type": "uint256",
                    "indexed": false,
                    "internalType": "uint256"
                },
                {
                    "name": "start",
                    "type": "uint256",
                    "indexed": false,
                    "internalType": "uint256"
                }
            ],
            "anonymous": false
        },
        {
            "type": "event",
            "name": "SetRampStep",
            "inputs": [
                {
                    "name": "rampStep",
                    "type": "uint256",
                    "indexed": false,
                    "internalType": "uint256"
                }
            ],
            "anonymous": false
        },
        {
            "type": "event",
            "name": "SetRateProvider",
            "inputs": [
                {
                    "name": "token",
                    "type": "uint256",
                    "indexed": false,
                    "internalType": "uint256"
                },
                {
                    "name": "rateProvider",
                    "type": "address",
                    "indexed": false,
                    "internalType": "address"
                }
            ],
            "anonymous": false
        },
        {
            "type": "event",
            "name": "SetStaking",
            "inputs": [
                {
                    "name": "stakingAddress",
                    "type": "address",
                    "indexed": false,
                    "internalType": "address"
                }
            ],
            "anonymous": false
        },
        {
            "type": "event",
            "name": "SetSwapFeeRate",
            "inputs": [
                {
                    "name": "rate",
                    "type": "uint256",
                    "indexed": false,
                    "internalType": "uint256"
                }
            ],
            "anonymous": false
        },
        {
            "type": "event",
            "name": "SetWeightBand",
            "inputs": [
                {
                    "name": "token",
                    "type": "uint256",
                    "indexed": true,
                    "internalType": "uint256"
                },
                {
                    "name": "lower",
                    "type": "uint256",
                    "indexed": false,
                    "internalType": "uint256"
                },
                {
                    "name": "upper",
                    "type": "uint256",
                    "indexed": false,
                    "internalType": "uint256"
                }
            ],
            "anonymous": false
        },
        {
            "type": "event",
            "name": "StopRamp",
            "inputs": [],
            "anonymous": false
        },
        {
            "type": "event",
            "name": "Swap",
            "inputs": [
                {
                    "name": "caller",
                    "type": "address",
                    "indexed": true,
                    "internalType": "address"
                },
                {
                    "name": "receiver",
                    "type": "address",
                    "indexed": false,
                    "internalType": "address"
                },
                {
                    "name": "tokenIn",
                    "type": "uint256",
                    "indexed": false,
                    "internalType": "uint256"
                },
                {
                    "name": "tokenOut",
                    "type": "uint256",
                    "indexed": false,
                    "internalType": "uint256"
                },
                {
                    "name": "amountIn",
                    "type": "uint256",
                    "indexed": false,
                    "internalType": "uint256"
                },
                {
                    "name": "amountOut",
                    "type": "uint256",
                    "indexed": false,
                    "internalType": "uint256"
                }
            ],
            "anonymous": false
        },
        {
            "type": "event",
            "name": "Unpause",
            "inputs": [
                {
                    "name": "caller",
                    "type": "address",
                    "indexed": true,
                    "internalType": "address"
                }
            ],
            "anonymous": false
        },
        {
            "type": "error",
            "name": "AlreadyInitialized",
            "inputs": []
        },
        {
            "type": "error",
            "name": "NewOwnerIsZeroAddress",
            "inputs": []
        },
        {
            "type": "error",
            "name": "NoHandoverRequest",
            "inputs": []
        },
        {
            "type": "error",
            "name": "Pool__AlreadyPaused",
            "inputs": []
        },
        {
            "type": "error",
            "name": "Pool__AmountsMustBeNonZero",
            "inputs": []
        },
        {
            "type": "error",
            "name": "Pool__BandsOutOfBounds",
            "inputs": []
        },
        {
            "type": "error",
            "name": "Pool__CannotBeZeroAddress",
            "inputs": []
        },
        {
            "type": "error",
            "name": "Pool__CannotRescuePoolToken",
            "inputs": []
        },
        {
            "type": "error",
            "name": "Pool__IndexOutOfBounds",
            "inputs": []
        },
        {
            "type": "error",
            "name": "Pool__InitialDepositAmountMustBeNonZero",
            "inputs": []
        },
        {
            "type": "error",
            "name": "Pool__InputOutputTokensSame",
            "inputs": []
        },
        {
            "type": "error",
            "name": "Pool__InvalidDecimals",
            "inputs": []
        },
        {
            "type": "error",
            "name": "Pool__InvalidParams",
            "inputs": []
        },
        {
            "type": "error",
            "name": "Pool__InvalidRateProvided",
            "inputs": []
        },
        {
            "type": "error",
            "name": "Pool__Killed",
            "inputs": []
        },
        {
            "type": "error",
            "name": "Pool__MaxLimitExceeded",
            "inputs": []
        },
        {
            "type": "error",
            "name": "Pool__MustBeInitiatedWithAGreaterThanZero",
            "inputs": []
        },
        {
            "type": "error",
            "name": "Pool__MustBeInitiatedWithMoreThanOneToken",
            "inputs": []
        },
        {
            "type": "error",
            "name": "Pool__NeedToDepositAtleastOneToken",
            "inputs": []
        },
        {
            "type": "error",
            "name": "Pool__NoConvergence",
            "inputs": []
        },
        {
            "type": "error",
            "name": "Pool__NoRate",
            "inputs": []
        },
        {
            "type": "error",
            "name": "Pool__NoSurplus",
            "inputs": []
        },
        {
            "type": "error",
            "name": "Pool__NotPaused",
            "inputs": []
        },
        {
            "type": "error",
            "name": "Pool__Paused",
            "inputs": []
        },
        {
            "type": "error",
            "name": "Pool__PoolIsEmpty",
            "inputs": []
        },
        {
            "type": "error",
            "name": "Pool__PoolIsFull",
            "inputs": []
        },
        {
            "type": "error",
            "name": "Pool__RampActive",
            "inputs": []
        },
        {
            "type": "error",
            "name": "Pool__RatioAboveUpperBound",
            "inputs": []
        },
        {
            "type": "error",
            "name": "Pool__RatioBelowLowerBound",
            "inputs": []
        },
        {
            "type": "error",
            "name": "Pool__SlippageLimitExceeded",
            "inputs": []
        },
        {
            "type": "error",
            "name": "Pool__SumOfWeightsMustBeOne",
            "inputs": []
        },
        {
            "type": "error",
            "name": "Pool__TokenAlreadyPartOfPool",
            "inputs": []
        },
        {
            "type": "error",
            "name": "Pool__WeightOutOfBounds",
            "inputs": []
        },
        {
            "type": "error",
            "name": "Pool__WeightsDoNotAddUp",
            "inputs": []
        },
        {
            "type": "error",
            "name": "Pool__ZeroAmount",
            "inputs": []
        },
        {
            "type": "error",
            "name": "Reentrancy",
            "inputs": []
        },
        {
            "type": "error",
            "name": "Unauthorized",
            "inputs": []
        }
    ],
    "bytecode": {
        "object": "0x608080604052346102fb57614eba803803809161001c82856103fb565b833981019060c0818303126102fb5761003481610432565b91602082015191604081015160018060401b0381116102fb578261005991830161045d565b60608201516001600160401b0381116102fb578361007891840161045d565b60808301519092906001600160401b0381116102fb5781019380601f860112156102fb5784516100a781610446565b956100b560405197886103fb565b81875260208088019260051b8201019283116102fb57602001905b8282106103eb5750505060a06100e69101610432565b946001600160a01b0316801561029a57815194602086116103dc57600286106103cd57858451148015906103c2575b61029a57670de0b6b3a764000081106103b3575f55846001555f955f965b602088101561039c57868814610312576001600160a01b0361015589866104c2565b5116156102a957600460206001600160a01b036101728b886104c2565b51166040519283809263313ce56760e01b82525afa908115610307575f916102c7575b5060ff60129116036102b8576001600160a01b036101b389866104c2565b5160058a0180546001600160a01b0319166001600160a01b039390921683169190911790556101e289876104c2565b5116156102a9576001600160a01b036101fb89876104c2565b5160258a0180546001600160a01b0319166001600160a01b03939092169290921617905561022988876104c2565b511561029a5769f4240f4240000000000061024489886104c2565b5164e8d4a51000806102568c8b6104c2565b510460141b9104171760b01b886045015561027188876104c2565b51810180911161028657600190970196610133565b634e487b7160e01b5f52601160045260245ffd5b6341598eb160e01b5f5260045ffd5b6309867afd60e41b5f5260045ffd5b6305fca6cf60e51b5f5260045ffd5b90506020813d82116102ff575b816102e1602093836103fb565b810103126102fb575160ff811681036102fb5760ff610195565b5f80fd5b3d91506102d4565b6040513d5f823e3d90fd5b93509450945050670de0b6b3a764000091505b0361038d57600160675560018060a01b031680638b78c6d819547f8be0079c531659141344cd1fd0a4f28419497f9722a3daafe3b4186f6b6457e05f80a3638b78c6d81955600380546001600160a01b0319169190911790556040516149cf90816104eb8239f35b634c93afb760e11b5f5260045ffd5b93509450945050670de0b6b3a76400009150610325565b63b0ac429160e01b5f5260045ffd5b508585511415610115565b63a596ef6d60e01b5f5260045ffd5b6317fb4af160e11b5f5260045ffd5b81518152602091820191016100d0565b601f909101601f19168101906001600160401b0382119082101761041e57604052565b634e487b7160e01b5f52604160045260245ffd5b51906001600160a01b03821682036102fb57565b6001600160401b03811161041e5760051b60200190565b9080601f830112156102fb57815161047481610446565b9261048260405194856103fb565b81845260208085019260051b8201019283116102fb57602001905b8282106104aa5750505090565b602080916104b784610432565b81520191019061049d565b80518210156104d65760209160051b010190565b634e487b7160e01b5f52603260045260245ffdfe610140806040526004361015610013575f80fd5b5f905f3560e01c908163047fc9aa14612aab575080631082ae9514612a655780631f3a0e4114612a4057806325692962146129f7578063267f4cf9146129da5780632797da80146129785780632d3eac441461290657806331e7e4871461272b5780633a04801d1461270e5780633e8847ec1461204c5780633f4ba83a14611fed57806341c0e1b514611f6c578063455611f214611f4f5780634bb77d9d14611e465780634f64b2be14611e0e5780634fdf5d1d14611d1357806354d1f13d14611ccd578063562e19df146117945780635c975abb1461177157806365c303a5146117365780636e18c5b41461127e578063715018a6146112335780638456cb59146111ce5780638aa044e4146111795780638d56c639146110165780638da5cb5b14610fe95780638e499bcf14610fcb5780638ff3909914610f5957806394068a9314610f275780639d76ea5814610efe578063a3820aa514610d25578063abfed9fd14610c2b578063b533789714610c0d578063b6efab3914610bef578063c6e1d3e714610bc1578063cc3344821461072f578063d1154ff0146106c3578063d7b4be241461069a578063dc036c9a146103ff578063e7ee6ad6146103bb578063ef407c3c1461037f578063f04e283e14610331578063f2fde38b146102f2578063f8dc929c146102d4578063f8e27f931461024e5763fee81cf414610219575f80fd5b3461024b57602036600319011261024b57610232612b0b565b9063389a75e1600c5252602080600c2054604051908152f35b80fd5b503461024b57602036600319011261024b57600435906001548210156102c55760208210156102b1576080610289836045015460b01c612f95565b91606854156102aa575b604051938452602084015260408301526060820152f35b5082610293565b634e487b7160e01b81526032600452602490fd5b6367e0bf5f60e01b8152600490fd5b503461024b578060031936011261024b576020606954604051908152f35b50602036600319011261024b57610307612b0b565b61030f612c31565b8060601b1561032457610321906137be565b80f35b637448fbae82526004601cfd5b50602036600319011261024b57610346612b0b565b61034e612c31565b63389a75e1600c528082526020600c208054421161037257908261032192556137be565b636f5e881883526004601cfd5b503461024b57602036600319011261024b5760043560208110156103b757602501546040516001600160a01b03909116815260209150f35b5080fd5b503461024b57602036600319011261024b57600435906001548210156102c55760208210156102b15760206001600160501b03836045015460601c16604051908152f35b503461024b57606036600319011261024b576004356024356001600160401b03811161066157610433903690600401612ac5565b61043b612af5565b903068929eee149b4bd21268541461068d573068929eee149b4bd212685560015493848214801590610683575b61067457856002549161047b8184612c09565b60028190556003546001600160a01b0316803b1561067057836040518092632770a7eb60e21b82528183816104b4893360048401612c16565b03925af190811561066557849161064c575b50509091506040517fd8ae9b9ba89e637bcb66a69ac91e8f688018e81d6f92c57e02226425c8efbdf63391806104fd868a83612c16565b0390a287908180670de0b6b3a76400005b6020831015610626578a831461062657908a949392918260450190815461053490612f76565b90949198620fffff8216928c61054a8d8d612b78565b9061055491612b8b565b9a8b61055f91612c09565b9561056c87948986612ff1565b915055820264e8d4a510000291870264e8d4a5100002049061058d9161360c565b02670de0b6b3a76400009004940194670de0b6b3a7640000810290808204670de0b6b3a7640000149015171561061257906105c791612b8b565b6105d282898c612b44565b358110610603578b95949392916105f76001928b848060a01b038460050154166135ce565b0191949092939461050e565b634647d8b560e01b8c5260048cfd5b634e487b7160e01b8d52601160045260248dfd5b9750505050945050505061063a9250612f39565b606b553868929eee149b4bd212685580f35b8161065691612ba9565b61066157825f6104c6565b8280fd5b6040513d86823e3d90fd5b8380fd5b6341598eb160e01b8652600486fd5b5060208211610468565b63ab143c0685526004601cfd5b503461024b578060031936011261024b576004546040516001600160a01b039091168152602090f35b503461024b57602036600319011261024b576004356106e0612c31565b662386f26fc100008111610720576020817f15a280e3a8fba7bb6a16834e8c4c8cf503351db60f83e74124075ff74b3d611992606655604051908152a180f35b6341598eb160e01b8252600482fd5b503461024b5761012036600319011261024b5761074a612b0b565b610752612b21565b90610104356001600160a01b03811681036106705761076f612c31565b60a43515610bb2576001546020811015610ba35760c43515610b9457606854610b855760025415610b7657604435151580610b63575b15610b4157670de0b6b3a7640000606435118015610b50575b610b415760018101808211610b2d579091908580805b6020831015610b215785831461086557505060058101546001600160a01b03868116911614610856579161084091600161082195946108466108198260450154612f76565b999099612f95565b90819c939c9a92819d670de0b6b3a76400006044358202049003612fce565b91612ff1565b81604501550191939490926107d4565b6364d9dc7160e11b8752600487fd5b949593929150955b60405163313ce56760e01b81526020816004816001600160a01b0389165afa908115610ad5578991610ae0575b5060ff6012911603610a7f576040516305d4ec6560e11b81526001600160a01b038581166004830152919091169690946020866024818b5afa958615610ad5578996610a9d575b508515610a8e57908561091161094993670de0b6b3a76400006109068460a435612b78565b049360443580612fce565b60018590556005890180546001600160a01b03199081166001600160a01b038a161790915560258a0180549091168b17905591612ff1565b856045015561096d61097e61095c6133d2565b809391600254958260c4359161341e565b60c4939193358b5583600255612f39565b606b5561098f60a4353033876132f0565b81811115610a7f57039060e4358210610a705760035487926001600160a01b039091169190823b15610670576109de928492836040518096819582946340c10f1960e01b845260048401612c16565b03925af18015610a6557610a46575b50927f3c078e7a1bc2cbd8c7cd625a6d75d084e96e6701c6a324576b75a688b38a1c53928560c09360405193845260018060a01b0316602084015260408301526060820152604435608082015260a43560a0820152a180f35b81610a549195949395612ba9565b610a61579091845f6109ed565b8480fd5b6040513d84823e3d90fd5b6341598eb160e01b8752600487fd5b6341598eb160e01b8852600488fd5b639cfd11eb60e01b8952600489fd5b9095506020813d602011610acd575b81610ab960209383612ba9565b81010312610ac95751945f6108e1565b5f80fd5b3d9150610aac565b6040513d8b823e3d90fd5b90506020813d602011610b19575b81610afb60209383612ba9565b81010312610b15575160ff81168103610b155760ff61089a565b8880fd5b3d9150610aee565b9495939291509561086d565b634e487b7160e01b86526011600452602486fd5b6341598eb160e01b8552600485fd5b50670de0b6b3a7640000608435116107be565b50662386f26fc1000060443511156107a5565b632468d44760e11b8552600485fd5b632ffc992d60e21b8552600485fd5b630b5556e560e11b8552600485fd5b6331cc28bd60e01b8552600485fd5b630b5556e560e11b8452600484fd5b503461024b57602036600319011261024b5760043560208110156103b7576020915060450154604051908152f35b503461024b578060031936011261024b576020606a54604051908152f35b503461024b578060031936011261024b576020606854604051908152f35b503461024b57604036600319011261024b57600435610c48612b21565b610c50612c31565b600154821015610d16576020821015610d02576025820180546001600160a01b0319166001600160a01b038316179055606b5460018301808411610cee5791610cd4610cce836040957f908a8bb84530a3f5baf8a0432620a6480e8b2af2e2423dae1222231a90caa5a4979560801c9160018060801b031690613024565b90612f39565b606b5582519182526001600160a01b03166020820152a180f35b634e487b7160e01b85526011600452602485fd5b634e487b7160e01b83526032600452602483fd5b6367e0bf5f60e01b8352600483fd5b503461024b57606036600319011261024b576004356001600160401b0381116103b757610d56903690600401612ac5565b6024356001600160401b03811161067057610d75903690600401612ac5565b6044356001600160401b038111610efa57610d94903690600401612ac5565b919092610d9f612c31565b84821480610ef1575b15610a705760015494875b60208110610dbf578880f35b818114610eed57610dd181838a612b44565b3587811015610ede57670de0b6b3a7640000610dee838787612b44565b35111580610ec1575b15610eb2576020811015610e9e57908186610e5083610e38610840898d8c610e498660019c60450199610e42610e2d8c54612f76565b9b919b9a909a612f95565b5050969098612b44565b3594612b44565b3592612fce565b90557f80394b5329e114f22712d6166857cd77c88256d851082e141591f481227fb8b96040610e80848989612b44565b35610e8c858b8d612b44565b3582519182526020820152a201610db3565b634e487b7160e01b8a52603260045260248afd5b63bd18ee1f60e01b8a5260048afd5b50670de0b6b3a7640000610ed683888a612b44565b351115610df7565b6367e0bf5f60e01b8a5260048afd5b8880f35b50848314610da8565b8580fd5b503461024b578060031936011261024b576003546040516001600160a01b039091168152602090f35b503461024b578060031936011261024b57606b54604080516001600160801b038316815260809290921c602083015290f35b503461024b57602036600319011261024b57610f73612b0b565b610f7b612c31565b6001600160a01b0316801561072057600480546001600160a01b031916821790556040519081527f58fd5d9c33114e6edf8ea5d30956f8d1a4ab112b004f99928b4bcf1b87d6666290602090a180f35b503461024b578060031936011261024b576020600154604051908152f35b503461024b578060031936011261024b57638b78c6d819546040516001600160a01b039091168152602090f35b503461024b57604036600319011261024b5760043590611034612b21565b61103c612c31565b60015483101561116a5760208310156111565761105c8360450154612f76565b5090670de0b6b3a7640000810290808204670de0b6b3a76400001490151715611142579061108991612b8b565b926001840180941161112e57600501546040516370a0823160e01b81523060048201526001600160a01b039091169190602081602481865afa9081156106655784916110fc575b50848111156110ed5761032193946110e791612c09565b916135ce565b63996f8ab960e01b8452600484fd5b90506020813d602011611126575b8161111760209383612ba9565b81010312610ac957515f6110d0565b3d915061110a565b634e487b7160e01b83526011600452602483fd5b634e487b7160e01b84526011600452602484fd5b634e487b7160e01b82526032600452602482fd5b6367e0bf5f60e01b8252600482fd5b503461024b57602036600319011261024b57600435611196612c31565b8015610720576020817f03cd63f3fef742f82f64d7e1775b22c4fe9ed6d2bf0ca7cc04146d620e190ab292606755604051908152a180f35b503461024b578060031936011261024b576111e7612c31565b60655460ff81166112245760ff1916600117606555337f5ee71a369c8672edded508e624ffc9257fa1ae6886ef32905c18e60196bca3998280a280f35b639784de2160e01b8252600482fd5b508060031936011261024b57611247612c31565b80638b78c6d819547f8be0079c531659141344cd1fd0a4f28419497f9722a3daafe3b4186f6b6457e08280a380638b78c6d8195580f35b503461024b57608036600319011261024b576064356001600160a01b03811681036103b7573068929eee149b4bd212685414611729573068929eee149b4bd212685560015480600435101561171a57606b546112ee90608081901c906001600160801b0316600435600101613024565b6002949194549061130160243583612c09565b60028190556003549095906001600160a01b0316803b15610a6157846040518092632770a7eb60e21b825281838161133f6024353360048401612c16565b03925af1801561170f579085916116fa575b5050602060043510156116e65761139f96670de0b6b3a76400009161137b60043560450154612f76565b9a8b9295919461139964e8d4a510008c620fffff87160202886132c3565b90612b78565b049587905b602082106116ba575b5050886113df8888620fffff948c9d8964e8d4a5100061140f9e9f6113d2838f612c09565b998a975495160202613645565b966114156113ed8988612c09565b670de0b6b3a764000061140260665483612b78565b60011c049a8b8092612c09565b99612b37565b97670de0b6b3a7640000810290808204670de0b6b3a764000014901517156116a6578561144191612b8b565b946044358610611697578c611456918a612ff1565b6004356045015580670de0b6b3a7640000810204670de0b6b3a7640000148115171561168357876114ae6114b492670de0b6b3a76400008f8f64e8d4a5100090620fffff6114a793160202856132c3565b9102612b8b565b93612b37565b97895b6020811015611668578b81146115b457600435810361155557670de0b6b3a76400008702878104670de0b6b3a7640000148815171561154157886114fa91612b8b565b89670de0b6b3a7640000810204670de0b6b3a7640000148a151715611541579061153b8e6001936115358e670de0b6b3a76400008f02612b8b565b9061333c565b016114b7565b634e487b7160e01b8c52601160045260248cfd5b6115628160450154612f76565b91809150670de0b6b3a7640000810204670de0b6b3a7640000148115171561061257600192918d6115358e670de0b6b3a7640000858f6115a790836115af9902612b8b565b945002612b8b565b61153b565b50919450919796945060209950849298506115d795505b611655575b5050612f39565b606b5550600560043501546115f890839083906001600160a01b03166135ce565b6040519060018060a01b031681526004358382015281604082015260243560608201527f7a3728879285f3ca5108b5f39698f28002a6b72cac81653343b8a7dfb75037f160803392a23868929eee149b4bd2126855604051908152f35b9161165f92612e16565b9050815f6115d0565b50919450919796945060209950849298506115d795506115cb565b634e487b7160e01b8a52601160045260248afd5b634647d8b560e01b8b5260048bfd5b634e487b7160e01b8b52601160045260248bfd5b90968988146116e0576116d8826116d38d600194612b78565b612b8b565b9701906113a4565b966113ad565b634e487b7160e01b84526032600452602484fd5b8161170491612ba9565b61067057835f611351565b6040513d87823e3d90fd5b6341598eb160e01b8352600483fd5b63ab143c0682526004601cfd5b503461024b57602036600319011261024b57600435906001548210156102c55760208210156102b1576020826045015460b01c604051908152f35b503461024b578060031936011261024b57602060ff606554166040519015158152f35b503461024b5760a036600319011261024b576084356001600160a01b03811681036103b7573068929eee149b4bd212685414611729573068929eee149b4bd21268556001549060243560043514611cbe578160043510801590611cb2575b610d165760443515611ca357611827606b5460018060801b0381169060801c9060016024350160081b60016004350117613024565b909260206004351015611c8f5761184360043560450154612f76565b9193909260206024351015611c7b5761186160243560450154612f76565b9194670de0b6b3a764000061187a606654604435612b78565b0496670de0b6b3a764000061189a826118958b604435612c09565b612b78565b04956118c26118a9888c612b37565b9c61139964e8d4a5100089620fffff8a1602028b6132c3565b8c670de0b6b3a7640000810204670de0b6b3a7640000148d151715611c585790888e81938f8e8b620fffff8a160264e8d4a510000291670de0b6b3a7640000029061190c91612b8b565b906119169161360c565b61191f91612b8b565b9a61192b8c9b85612b37565b9061193591612c09565b998a916002549054908b620fffff8c160264e8d4a51000029461195795613645565b978861196291612b37565b9a80670de0b6b3a7640000810204670de0b6b3a76400001481151715611c4457848f8f8e670de0b6b3a7640000611535926115a788836119a29902612b8b565b670de0b6b3a76400008202828104670de0b6b3a76400001483151715611c4457906119cc91612b8b565b670de0b6b3a76400008802888104670de0b6b3a76400001489151715611c445791611a00878a936115358f611a0597612b8b565b612c09565b670de0b6b3a7640000810290808204670de0b6b3a764000014901517156106125783611a3091612b8b565b9a6064358c10611c6c5788611b8c575b8492611a5d9492611a5092612ff1565b6004356045015585612ff1565b60243560450155670de0b6b3a7640000840293808504670de0b6b3a76400001490151715611b78578593611aab611abd969464e8d4a5100060209c9995620fffff611ab196160202906132c3565b90612b8b565b91611b64575b50612f39565b606b5560056004350154611ae19060443590309033906001600160a01b03166132f0565b5060056024350154611aff90839083906001600160a01b03166135ce565b6040519060018060a01b0316815260043583820152602435604082015260443560608201528160808201527fb3e2773606abfd36b5bd91394b3a54d1398336c65005baf7bf7a05efeffaf75b60a03392a23868929eee149b4bd2126855604051908152f35b611b7091600254612e16565b905081611ab7565b634e487b7160e01b89526011600452602489fd5b96670de0b6b3a7640000611ba0838b612b78565b049080670de0b6b3a7640000810204670de0b6b3a76400001481151715611c5857611bcb828a612b37565b80670de0b6b3a7640000810204670de0b6b3a76400001481151715611c445792611c3783611c31611a5095611c3189968f6114a78f9b8f9d611a5d9f9d93670de0b6b3a764000064e8d4a510008196620fffff611c2c951602029302612b8b565b61360c565b9d612b37565b9b92509294509250611a40565b634e487b7160e01b8f52601160045260248ffd5b634e487b7160e01b8e52601160045260248efd5b634647d8b560e01b8d5260048dfd5b634e487b7160e01b88526032600452602488fd5b634e487b7160e01b85526032600452602485fd5b630b5556e560e11b8352600483fd5b508160243510156117f2565b63a8bf4d5f60e01b8352600483fd5b508060031936011261024b5763389a75e1600c52338152806020600c2055337ffa7b8eab7da67f412cc9575ed43464468f9bfbae89d1675917346ca6d8fe3c928280a280f35b503461024b57604036600319011261024b57611d2d612b0b565b90611d36612b21565b611d3e612c31565b600154926001600160a01b03811691835b6020811015611dfe57858114611d8a5760058101546001600160a01b03168414611d7b57600101611d4f565b63103d1a8760e31b8552600485fd5b50909160249394506020905b6040516370a0823160e01b815230600482015294859182905afa918215610665578492611dc8575b61032193506135ce565b91506020833d602011611df6575b81611de360209383612ba9565b81010312610ac957610321925191611dbe565b3d9150611dd6565b5090916024939450602090611d96565b503461024b57602036600319011261024b5760043560208110156103b757600501546040516001600160a01b03909116815260209150f35b503461024b57602036600319011261024b576004356001600160401b0381116103b757611e77903690600401612ac5565b600154839284905b60208210611edb575b50505015611eb4575b610cce611eae91606b5460018060801b0381169060801c91613024565b606b5580f35b507f201f1e1d1c1b1a191817161514131211100f0e0d0c0b0a090807060504030201611e91565b90929193828414611f465784611ef2858585612b44565b351015611f3757611f04848484612b44565b3560018101809111611f2357600385901b1b1793919260010190611e7f565b634e487b7160e01b87526011600452602487fd5b6367e0bf5f60e01b8652600486fd5b93829350611e88565b503461024b578060031936011261024b5760209054604051908152f35b503461024b578060031936011261024b57611f85612c31565b60655460ff811615611fde5760ff8160081c16611fcf5761ff001916610100176065557fbe26733c2bf6ff3ea5ba8cfe744422bd49052ff9ed5685c9e81e6f9321dbaddd8180a180f35b631c6a9ca160e11b8252600482fd5b6363856c5960e01b8252600482fd5b503461024b578060031936011261024b57612006612c31565b60655460ff811615611fde5760ff8160081c16611fcf5760ff1916606555337faeb196d352664784d1900b0e7414a8face7d29f4dae8c4b0cf68ed477423bbf48280a280f35b5034610ac9576060366003190112610ac9576004356001600160401b038111610ac95761207d903690600401612ac5565b612088929192612af5565b903068929eee149b4bd212685414612701573068929eee149b4bd212685560015460805260805181036126f257606b545f1960a0526001600160801b038116935f9360809290921c928492909190835b60208110156126e5576080518114612170576120f581858b612b44565b3596871561216157906008600192838301881b1796019787151580612156575b612125575b505b019593956120d8565b612141906116d36121398460450154612f76565b509092612b78565b8060a0511060a0518218021860a0525f61211a565b5060a0511515612115565b9496506001905f60a05261211c565b50939194929590955b156126d65761218792613024565b610100529061010051918095600254919461010051966121a8608051612bde565b946121b66040519687612ba9565b6080518652601f196121c9608051612bde565b013660208801375f60c0525b602060c05110156126c85760805160c051146123f0576121f860c0518486612b44565b3580156123db5760c05160450161220f8154612f76565b9092670de0b6b3a76400006122248587612b78565b0460e05261223f8261223860e05186612b37565b9586612ff1565b905588612276575b505060c05160050154612268929150309033906001600160a01b03166132f0565b600160c0510160c0526121d5565b909b9a8c670de0b6b3a7640000939e93819c959c0204670de0b6b3a7640000148d1517156123c7578c8e61010051670de0b6b3a76400008302906122b991612b8b565b8c60c0516122c691612bf5565b52608051620fffff85160264e8d4a510000291670de0b6b3a764000002906122ed91612b8b565b906122f7916132c3565b61230091612b78565b670de0b6b3a764000090049a60e05161231891612b37565b9b60a0516123269082612b78565b670de0b6b3a7640000900460e0519061233e91612c09565b60665460011c61234d91612b78565b670de0b6b3a764000090049d8e9260805190620fffff160264e8d4a51000029261237691612c09565b61238991670de0b6b3a764000002612b8b565b90612393916132c3565b61239c91612b78565b670de0b6b3a764000090049a60e051906123b591612c09565b6123be91612b37565b965f8080612247565b634e487b7160e01b5f52601160045260245ffd5b50846122685763f6ef3f5d60e01b5f5260045ffd5b9295989096949197985b848061261e575050505061240c6133d2565b8091801561260f578261242992915b8615925f54906080516134ee565b9290956124368588612c09565b9889151580612603575b156125f4576003546001600160a01b0316803b15610ac9575f61247c81928d6040519485809481936340c10f1960e01b83528b60048401612c16565b03925af180156125e9576125ad575b507f67902069e86c21d5ad116d9df073bf02a2bfdbd591414157cda22d3b8476cd53916124d1916040519460018060a01b03168552606060208601526060850191612b54565b918960408201528033930390a284918315612598575050506124fa91869185549060805161341e565b600354600454919492936001600160a01b03928316929091169061251e9085612c09565b91813b156106705791839161254a93836040518096819582946340c10f1960e01b845260048401612c16565b03925af18015610a6557612583575b50509261256c916020945b600255612f39565b606b553868929eee149b4bd2126855604051908152f35b61258e828092612ba9565b61024b5780612559565b6020985061256c965090945092509050612564565b6124d1919950916125df5f7f67902069e86c21d5ad116d9df073bf02a2bfdbd591414157cda22d3b8476cd5394612ba9565b5f9991509161248b565b6040513d5f823e3d90fd5b634647d8b560e01b5f5260045ffd5b506024358a1015612440565b63df7da5cd60e01b5f5260045ffd5b5f9a9895939a9997969492995b60208110156126b35760805181146126b357612648818a8a612b44565b35156126ab57808c61266a6126608360450154612f76565b9591939050612bf5565b519281670de0b6b3a7640000810204670de0b6b3a764000014821517156123c7576001936115358e670de0b6b3a76400006126a59502612b8b565b0161262b565b6001906126a5565b5090809395989a50612429929496979961241b565b9295989096949197986123fa565b631f0ebc5760e21b5f5260045ffd5b5093919492959095612179565b6341598eb160e01b5f5260045ffd5b63ab143c065f526004601cfd5b34610ac9575f366003190112610ac9576020606654604051908152f35b34610ac9576080366003190112610ac9576004356024356001600160401b038111610ac95761275e903690600401612ac5565b604435916064359361276e612c31565b6001549381156126f2578484036126f2574286106126f257606b54608081901c906127a1906001600160801b0316612c6d565b9190916128e5575b50506068546128d657856068556127c08187612b37565b60695581606a555f955f965b60208810156128bf5786881461284a576127e7888787612b44565b3597670de0b6b3a764000089101561283b5761280589600193612b37565b98612832826045019161282961084061281e8554612f76565b949194939093612f95565b93915091612fce565b905501966127cc565b630152ac2f60e31b5f5260045ffd5b9092949550670de0b6b3a7640000919396505b036128b0576128a07fb0fb14f34df2e6ea25fc5285462fa7522278318522be931036565d550e5236a5956040519586958652608060208701526080860191612b54565b91604084015260608301520390a1005b63083aafed60e41b5f5260045ffd5b9092949550670de0b6b3a76400009193965061285d565b632ffc992d60e21b5f5260045ffd5b6128f5816128fc93600254612e16565b9050612f39565b606b5586806127a9565b34610ac9575f366003190112610ac95761291e612c4d565b606b54602090608081901c9061293c906001600160801b0316612c6d565b91828061296f575b612955575b50506040519015158152f35b6128f58161296593600254612e16565b606b558280612949565b50801515612944565b34610ac9576020366003190112610ac9576004356001548110156129cb5760208110156129b7576001600160601b036020916045015416604051908152f35b634e487b7160e01b5f52603260045260245ffd5b6367e0bf5f60e01b5f5260045ffd5b34610ac9575f366003190112610ac9576020606754604051908152f35b5f366003190112610ac95763389a75e1600c52335f526202a30042016020600c2055337fdbf36a107da19e49527a7176a1babf963b4b0ff8cde35ee35d6cd8f1f9ac7e1d5f80a2005b34610ac9575f366003190112610ac957602060ff60655460081c166040519015158152f35b34610ac9575f366003190112610ac957612a7d612c31565b5f6068555f6069557fc3014e77feddea63dc4c4b247508845d74eb35678da2e55000c3bb655727650e5f80a1005b34610ac9575f366003190112610ac9576020906002548152f35b9181601f84011215610ac9578235916001600160401b038311610ac9576020808501948460051b010111610ac957565b604435906001600160a01b0382168203610ac957565b600435906001600160a01b0382168203610ac957565b602435906001600160a01b0382168203610ac957565b919082018092116123c757565b91908110156129b75760051b0190565b81835290916001600160fb1b038311610ac95760209260051b809284830137010190565b818102929181159184041417156123c757565b8115612b95570490565b634e487b7160e01b5f52601260045260245ffd5b90601f801991011681019081106001600160401b03821117612bca57604052565b634e487b7160e01b5f52604160045260245ffd5b6001600160401b038111612bca5760051b60200190565b80518210156129b75760209160051b010190565b919082039182116123c757565b6001600160a01b039091168152602081019190915260400190565b638b78c6d819543303612c4057565b6382b429005f526004601cfd5b600160ff60655416151514612c5e57565b63b8c449b360e01b5f5260045ffd5b90606854916069549083158015612e0d575b8015612def575b612de7575080839142105f14612dd357612caf91612ca391612c09565b92426068555b42612c09565b915f5490606a548180159386855f14612d98575050505b5f555f5b6020811015612d8e576001548114612d675760019080604501612d1e87612d046108408789612cf98754612f76565b969196959095612f95565b9592809592949195925f14612d265750505050805b612fce565b905501612cca565b84811115612d4a5750612d19926116d3612d44926118958786612c09565b90612c09565b9150612d19926116d3612d61926118958588612c09565b90612b37565b50505090505b5f60025480612d7e575b5090600190565b612d8891506137fb565b5f612d77565b5050509050612d6d565b9091928083115f14612dbe57926116d3612d4492611895612db99686612c09565b612cc6565b926116d3612d619261189585612db997612c09565b5050612caf5f925f6068555f606955612ca9565b92505f919050565b50612dfa8442612c09565b606754118015612c865750428211612c86565b50428411612c7f565b9092915f938215612f305790612e3291600154845f549161341e565b93909180831115612eb7576003546004546001600160a01b0390811692911690612e5c9085612c09565b91813b1561067057918391612e8893836040518096819582946340c10f1960e01b845260048401612c16565b03925af18015610a6557612ea2575b50505b806002559190565b612ead828092612ba9565b61024b5780612e97565b8091508210612ec7575b50612e9a565b6003546004546001600160a01b0391821692911690612ee7908490612c09565b823b15610ac957612f11925f9283604051809681958294632770a7eb60e21b845260048401612c16565b03925af180156125e95715612ec1575f612f2a91612ba9565b5f612ec1565b935050505f9190565b906001600160801b0382111580612f65575b612f5e576341598eb160e01b5f5260045ffd5b60801b1790565b506001600160801b03811115612f4b565b6001600160601b038116916001600160501b038260601c169160b01c90565b9064e8d4a51000620fffff8316029164e8d4a51000620fffff8260141c16029164e8d4a5100080620fffff8460281c160292603c1c0290565b90919264e8d4a510008080809304603c1b950460281b930460141b910417171790565b90916001600160601b0382118015613014575b6126f25760b01b9160601b171790565b506001600160501b038311613004565b9161302d612c4d565b806101205261303b82612c6d565b90936001545f5b6020811061309c575b505050159182613092575b5081613085575b5061307d57613073906101205190600254612e16565b9050906101205190565b906101205190565b905061012051145f61305d565b831491505f613056565b60ff838260031b1c16801580156132ba575b6132b4575f1981019060208210156129b75760018060a01b03602482015416906130db6044820154612f76565b9190602060018060a01b036004860154166024604051809881936305d4ec6560e11b835260048301525afa9485156125e9575f95613281575b5084156132725780851461326457600b8102818104600b14821517156123c757600a900485118061325b575b61324e575b5f9181151580613242575b61319e575b5050927f516c8bdb823996757c901b6b9bd210afa82c6ec8d550f0e57cd3f64896f7319c92604461318d6020948460019a9998612ff1565b910155604051908152a25b01613042565b9296959493909c9150670de0b6b3a76400008d02918d808404670de0b6b3a764000014901517156123c7578480938a620fffff8b160264e8d4a5100002916131e591612b8b565b906131ef916132c3565b6131f891612b78565b670de0b6b3a764000090049c61320e8385612b78565b9061321891612b8b565b9283610120519061322891612b37565b9061323291612c09565b610120529293949591905f613155565b50610120511515613150565b613256612c31565b613145565b50801515613140565b505050505050600190613198565b639531a3a160e01b5f5260045ffd5b9094506020813d82116132ac575b8161329c60209383612ba9565b81010312610ac95751935f613114565b3d915061328f565b5061304b565b508281116130ae565b906132cd91613d40565b80156132eb57670de0b6b3a7640000606482025f1901040160010190565b505f90565b601c5f60649281946020966040519860605260405260601b602c526323b872dd60601b600c525af13d1560015f511417161561332f575f606052604052565b637939f4245f526004601cfd5b9164e8d4a51000620fffff8216029064e8d4a51000620fffff8260281c16028281115f146133cb57505f5b83106133b25764e8d4a5100090603c1c020180670de0b6b3a764000010670de0b6b3a764000082180218811161339b575050565b10156133a357565b63b1a539bd60e01b5f5260045ffd5b505011156133bc57565b637b3a1f9560e01b5f5260045ffd5b8203613367565b6001545f91825b602084101561341557828414613403576001906001600160601b03856045015416019301926133d9565b925090505b613411826137fb565b9190565b92509050613408565b9290939491670de0b6b3a763ffff198101958187116123c75761344091612b78565b9390945f915b610100831061345e5763b138078b60e01b5f5260045ffd5b80156126f25781878202870304905f5b602081106134d2575b506064908083106134c157670de0b6b3a76400008184035b020411156134a257600190920191613446565b929450613411935050670de0b6b3a76400006064830204919050612b37565b670de0b6b3a764000083820361348f565b978689146134e85781836001920204980161346e565b97613477565b939592909491670de0b6b3a763ffff198101968188116123c75761351191612b78565b9490955f915b610100831061352f5763b138078b60e01b5f5260045ffd5b80156126f25781888202880304905f5b602081106135b2575b506064908083106135a157670de0b6b3a76400008184035b0204111561357357600190920191613517565b94505050909250670de0b6b3a76400006064830204905f146135985761341191612b37565b61341191612c09565b670de0b6b3a7640000838203613560565b98878a146135c85781836001920204990161353f565b98613548565b60105f604492602095829560145260345263a9059cbb60601b82525af13d1560015f51141716156135ff575f603452565b6390b8ec185f526004601cfd5b9061361691613d40565b80156132eb57670de0b6b3a7640000606482025f19010460018101821061363f5790035f190190565b50505f90565b92909194670de0b6b3a76400008602868104670de0b6b3a764000014871517156123c75761368961368261369094670de0b6b3a764000093612b8b565b8097612b78565b0494612b37565b908215612b9557826a0c097ce7bc90715b34b9f160241b0490935f945b61010086106136c55763b138078b60e01b5f5260045ffd5b80156126f257606461375684611aab8a611a008961375188670de0b6b3a764000061374b8f613745848f8a611a008a8f61373e8161372461189597612d618a9c8f96613737816137318f8b8f91611aab968f6137249061372a93612b37565b93612b78565b0490612b37565b95612b78565b918d6132c3565b0490612c09565b99612b78565b04612b37565b612b37565b918083106137a657670de0b6b3a76400006137718285612c09565b02041115613784576001909501946136ad565b9450505050506137a39150670de0b6b3a7640000606482020490612b37565b90565b670de0b6b3a76400006137b98483612c09565b613771565b60018060a01b031680638b78c6d819547f8be0079c531659141344cd1fd0a4f28419497f9722a3daafe3b4186f6b6457e05f80a3638b78c6d81955565b6001545f670de0b6b3a76400005b602082101561387f5782821461387f57620fffff9061382b8360450154612f76565b9050929092169064e8d4a510008202151580613876575b156126f25761386c8260019464e8d4a510008089670de0b6b3a7640000970202928a02020461360c565b0204910190613809565b50821515613842565b9250505090565b9068056bc75e2d630fffff1982019182136001166123c757565b906803782dace9d8ffffff1982019182136001166123c757565b906806f05b59d3b1ffffff1982019182136001166123c757565b9068ad78ebc5ac61ffffff1982019182136001166123c757565b906856bc75e2d630ffffff1982019182136001166123c757565b90682b5e3af16b187fffff1982019182136001166123c757565b906815af1d78b58c3fffff1982019182136001166123c757565b90680ad78ebc5ac61fffff1982019182136001166123c757565b906802b5e3af16b187ffff1982019182136001166123c757565b9068015af1d78b58c3ffff1982019182136001166123c757565b906803782dace9d90000008201915f6803782dace9d9000000841291129080158216911516176123c757565b9068ad78ebc5ac620000008201915f68ad78ebc5ac62000000841291129080158216911516176123c757565b906856bc75e2d6310000008201915f6856bc75e2d631000000841291129080158216911516176123c757565b90682b5e3af16b188000008201915f682b5e3af16b18800000841291129080158216911516176123c757565b906815af1d78b58c4000008201915f6815af1d78b58c400000841291129080158216911516176123c757565b90680ad78ebc5ac62000008201915f680ad78ebc5ac6200000841291129080158216911516176123c757565b9068056bc75e2d631000008201915f68056bc75e2d63100000841291129080158216911516176123c757565b906802b5e3af16b18800008201915f6802b5e3af16b1880000841291129080158216911516176123c757565b9068015af1d78b58c400008201915f68015af1d78b58c40000841291129080158216911516176123c757565b9067ad78ebc5ac6200008201915f67ad78ebc5ac620000841291129080158216911516176123c757565b906756bc75e2d63100008201915f6756bc75e2d6310000841291129080158216911516176123c757565b908168056bc75e2d63100000019182126001166123c757565b9190915f83820193841291129080158216911516176123c757565b908160011b91808305600214901517156123c757565b906064820291808305606414901517156123c757565b9068056bc75e2d6310000082029180830568056bc75e2d6310000014901517156123c757565b906b02df0ab5a80a22c61ab5a7008202918083056b02df0ab5a80a22c61ab5a70014901517156123c757565b90693f1fce3da636ea5cf850820291808305693f1fce3da636ea5cf85014901517156123c757565b90690127fa27722cc06cc5e2820291808305690127fa27722cc06cc5e214901517156123c757565b9068280e60114edb805d0382029180830568280e60114edb805d0314901517156123c757565b90680ebc5fb41746121110820291808305680ebc5fb4174612111014901517156123c757565b906808f00f760a4b2db55d8202918083056808f00f760a4b2db55d14901517156123c757565b906806f5f17757889379378202918083056806f5f177578893793714901517156123c757565b81810292915f8212600160ff1b8214166123c75781840514901517156123c757565b8115612b9557600160ff1b81145f198314166123c7570590565b81156140d157801561363f578060ff1c61409a57770bce5086492111aea88f4bb1ca6bcf584181ea8059f765328210156140635780670c7d713b49da00001280614052575b1561403257670de0b6b3a76400008102908105670de0b6b3a7640000036123c7576ec097ce7bc90715b34b9f0fffffffff198101906001818313166123c7576a0c097ce7bc90715b34b9f160241b8202918083056a0c097ce7bc90715b34b9f160241b14901517156123c7576a0c097ce7bc90715b34b9f160241b8101905f6a0c097ce7bc90715b34b9f160241b831291129080158216911516176123c757613e2d91613d26565b613e378180613d04565b6a0c097ce7bc90715b34b9f160241b90058080808085613e58828098613d04565b6a0c097ce7bc90715b34b9f160241b90059060038205613e7791613b83565b91613e8191613d04565b6a0c097ce7bc90715b34b9f160241b90059060058205613ea091613b83565b91613eaa91613d04565b6a0c097ce7bc90715b34b9f160241b90059060078205613ec991613b83565b91613ed391613d04565b6a0c097ce7bc90715b34b9f160241b90059060098205613ef291613b83565b91613efc91613d04565b6a0c097ce7bc90715b34b9f160241b900590600b8205613f1b91613b83565b91613f2591613d04565b6a0c097ce7bc90715b34b9f160241b900590600d8205613f4491613b83565b91613f4e91613d04565b6a0c097ce7bc90715b34b9f160241b9005600f9005613f6c91613b83565b613f7590613b9e565b90613f8a81670de0b6b3a76400008405613d04565b91670de0b6b3a7640000900790613fa091613d04565b670de0b6b3a76400009005613fb491613b83565b670de0b6b3a7640000905b0580680238fd42c5cf03ffff1913158061401f575b15613fe2576137a390614588565b60405162461bcd60e51b815260206004820152601560248201527450726f64756374206f7574206f6620626f756e647360581b6044820152606490fd5b5068070c1cc73b00c80000811315613fd4565b670de0b6b3a76400009161404861404d926140ef565b613d04565b613fbf565b50670f43fc2c04ee00008112613d85565b60405162461bcd60e51b815260206004820152600f60248201526e59206f7574206f6620626f756e647360881b6044820152606490fd5b60405162461bcd60e51b815260206004820152600f60248201526e58206f7574206f6620626f756e647360881b6044820152606490fd5b5050670de0b6b3a764000090565b600160ff1b81146123c7575f0390565b670de0b6b3a76400008112614520576137a3906142e7905f775803bcc5cb9634ba4cfb2213f784019318ed4dcb6017880f60361b8212156144f7575b73011798004d755d3c8bc8e03204cf44619e00000082121561449d575b6142e26142a06142a06142db6142706142b56142d56142cb61427061425a61417b6141756142a09c613bb4565b9c613bb4565b6e01855144814a7ff805980ff008400081121561446d575b6b02df0ab5a80a22c61ab5a700811215614440575b693f1fce3da636ea5cf850811215614415575b690127fa27722cc06cc5e28112156143ea575b68280e60114edb805d038112156143c0575b680ebc5fb41746121110811215614396575b6808f00f760a4b2db55d81121561436c575b6806f5f1775788937937811215614342575b6806248f33704b286603811215614318575b6805c548670b9510e7ac8112156142ee575b61425461424e61424983613886565b613bca565b91613a92565b90613d26565b6142c56142bb61427061427f6142708580613d04565b68056bc75e2d63100000900590565b8098856142ac614270846142a661429a61427083809d613d04565b94600386055b90613b83565b93613d04565b9e8f6005900590565b9c613d04565b9960078b056142a0565b98613d04565b95600987056142a0565b94613d04565b600b900590565b613b9e565b6064900590565b61430c6142fd61431292613bca565b6805c548670b9510e7ac900590565b9c613b40565b9b61423a565b61433661432761433c92613bca565b6806248f33704b286603900590565b9c613b16565b9b614228565b61436061435161436692613bca565b6806f5f1775788937937900590565b9c613aea565b9b614216565b61438a61437b61439092613bca565b6808f00f760a4b2db55d900590565b9c613abe565b9b614204565b6143b46143a56143ba92613bca565b680ebc5fb41746121110900590565b9c613a92565b9b6141f2565b6143de6143cf6143e492613bca565b68280e60114edb805d03900590565b9c613a66565b9b6141e0565b6144096143f961440f92613bca565b690127fa27722cc06cc5e2900590565b9c613a3a565b9b6141ce565b61443461442461443a92613bca565b693f1fce3da636ea5cf850900590565b9c613a0e565b9b6141bb565b61446161444f61446792613bca565b6b02df0ab5a80a22c61ab5a700900590565b9c6139e2565b9b6141a8565b61449161447c61449792613bca565b6e01855144814a7ff805980ff0084000900590565b9c6139b6565b9b614193565b906142e26142a06142a06142db6142706142b56142d56142cb61427061425a61417b6141756144e46144de6142a09e6b1425982cf597cd205cef7380900590565b9e61398a565b9c50505050505050505050505050614148565b5072195e54c5dd42177f53a27172fa9ec63026282760241b90056806f05b59d3b200000061412b565b61453b614540916a0c097ce7bc90715b34b9f160241b613d26565b6140ef565b6137a3906140df565b1561455057565b60405162461bcd60e51b815260206004820152601060248201526f125b9d985b1a5908115e1c1bdb995b9d60821b6044820152606490fd5b680238fd42c5cf03ffff1981121580614986575b6145a590614549565b5f811261495d576806f05b59d3b20000008112614923576145c5906138ba565b6145e572195e54c5dd42177f53a27172fa9ec63026282760241b91613bb4565b68056bc75e2d631000009068ad78ebc5ac62000000811215614903575b6856bc75e2d6310000008112156148e8575b682b5e3af16b188000008112156148cd575b6815af1d78b58c4000008112156148b2575b680ad78ebc5ac6200000811215614897575b68056bc75e2d6310000081121561487c575b6802b5e3af16b1880000811215614861575b68015af1d78b58c40000811215614846575b80808080808080808061469281613b6a565b61469c8280613d04565b68056bc75e2d6310000090056002900590816146b791613b83565b916146c191613d04565b68056bc75e2d6310000090056003900590816146dc91613b83565b916146e691613d04565b68056bc75e2d63100000900560049005908161470191613b83565b9161470b91613d04565b68056bc75e2d63100000900560059005908161472691613b83565b9161473091613d04565b68056bc75e2d63100000900560069005908161474b91613b83565b9161475591613d04565b68056bc75e2d63100000900560079005908161477091613b83565b9161477a91613d04565b68056bc75e2d63100000900560089005908161479591613b83565b9161479f91613d04565b68056bc75e2d6310000090056009900590816147ba91613b83565b916147c491613d04565b68056bc75e2d631000009005600a900590816147df91613b83565b916147e991613d04565b68056bc75e2d631000009005600b9005908161480491613b83565b9161480e91613d04565b68056bc75e2d631000009005600c900561482791613b83565b61483091613d04565b68056bc75e2d631000009005906142e791613d04565b61427061485561485b92613970565b92613cde565b90614680565b61427061487061487692613956565b92613cb8565b9061466e565b61427061488b61489192613886565b92613c92565b9061465c565b6142706148a66148ac9261393c565b92613c6c565b9061464a565b6142706148c16148c792613922565b92613c44565b90614638565b6142706148dc6148e292613908565b92613c1c565b90614626565b6142706148f76148fd926138ee565b92613bf0565b90614614565b61490d91506138d4565b6e01855144814a7ff805980ff008400090614602565b6803782dace9d900000081126149525761493c906138a0565b6145e56b1425982cf597cd205cef738091613bb4565b6145e5600191613bb4565b61497d6149786a0c097ce7bc90715b34b9f160241b926140df565b614588565b6137a391613d26565b5068070c1cc73b00c8000081131561459c56fea26469706673582212202352e2409f3d576deb9548d1d8d82a1f8020d32c0551bde8f37e591c5e3527d164736f6c634300081a0033",
        "linkReferences": {}
    },
    "methodIdentifiers": {
        "addLiquidity(uint256[],uint256,address)": "3e8847ec",
        "addToken(address,address,uint256,uint256,uint256,uint256,uint256,uint256,address)": "cc334482",
        "amplification()": "455611f2",
        "cancelOwnershipHandover()": "54d1f13d",
        "completeOwnershipHandover(address)": "f04e283e",
        "kill()": "41c0e1b5",
        "killed()": "1f3a0e41",
        "numTokens()": "8e499bcf",
        "owner()": "8da5cb5b",
        "ownershipHandoverExpiresAt(address)": "fee81cf4",
        "packedVirtualBalances(uint256)": "c6e1d3e7",
        "packedWeight(uint256)": "65c303a5",
        "pause()": "8456cb59",
        "paused()": "5c975abb",
        "rampLastTime()": "b5337897",
        "rampStep()": "267f4cf9",
        "rampStopTime()": "f8dc929c",
        "rate(uint256)": "e7ee6ad6",
        "rateProviders(uint256)": "ef407c3c",
        "removeLiquidity(uint256,uint256[],address)": "dc036c9a",
        "removeLiquiditySingle(uint256,uint256,uint256,address)": "6e18c5b4",
        "renounceOwnership()": "715018a6",
        "requestOwnershipHandover()": "25692962",
        "rescue(address,address)": "4fdf5d1d",
        "setRamp(uint256,uint256[],uint256,uint256)": "31e7e487",
        "setRampStep(uint256)": "8aa044e4",
        "setRateProvider(uint256,address)": "abfed9fd",
        "setStaking(address)": "8ff39099",
        "setSwapFeeRate(uint256)": "d1154ff0",
        "setWeightBands(uint256[],uint256[],uint256[])": "a3820aa5",
        "skim(uint256,address)": "8d56c639",
        "stakingAddress()": "d7b4be24",
        "stopRamp()": "1082ae95",
        "supply()": "047fc9aa",
        "swap(uint256,uint256,uint256,uint256,address)": "562e19df",
        "swapFeeRate()": "3a04801d",
        "targetAmplification()": "b6efab39",
        "tokenAddress()": "9d76ea58",
        "tokens(uint256)": "4f64b2be",
        "transferOwnership(address)": "f2fde38b",
        "unpause()": "3f4ba83a",
        "updateRates(uint256[])": "4bb77d9d",
        "updateWeights()": "2d3eac44",
        "virtualBalance(uint256)": "2797da80",
        "virtualBalanceProdSum()": "94068a93",
        "weight(uint256)": "f8e27f93"
    },
    "id": 58
}